{
  "_format": "hh-sol-artifact-1",
  "contractName": "MemeToken",
  "sourceName": "contracts/MemeToken.sol",
  "abi": [
    {
      "inputs": [
        {
          "internalType": "address",
          "name": "spender",
          "type": "address"
        },
        {
          "internalType": "uint256",
          "name": "allowance",
          "type": "uint256"
        },
        {
          "internalType": "uint256",
          "name": "needed",
          "type": "uint256"
        }
      ],
      "name": "ERC20InsufficientAllowance",
      "type": "error"
    },
    {
      "inputs": [
        {
          "internalType": "address",
          "name": "sender",
          "type": "address"
        },
        {
          "internalType": "uint256",
          "name": "balance",
          "type": "uint256"
        },
        {
          "internalType": "uint256",
          "name": "needed",
          "type": "uint256"
        }
      ],
      "name": "ERC20InsufficientBalance",
      "type": "error"
    },
    {
      "inputs": [
        {
          "internalType": "address",
          "name": "approver",
          "type": "address"
        }
      ],
      "name": "ERC20InvalidApprover",
      "type": "error"
    },
    {
      "inputs": [
        {
          "internalType": "address",
          "name": "receiver",
          "type": "address"
        }
      ],
      "name": "ERC20InvalidReceiver",
      "type": "error"
    },
    {
      "inputs": [
        {
          "internalType": "address",
          "name": "sender",
          "type": "address"
        }
      ],
      "name": "ERC20InvalidSender",
      "type": "error"
    },
    {
      "inputs": [
        {
          "internalType": "address",
          "name": "spender",
          "type": "address"
        }
      ],
      "name": "ERC20InvalidSpender",
      "type": "error"
    },
    {
      "inputs": [],
      "name": "InvalidInitialization",
      "type": "error"
    },
    {
      "inputs": [],
      "name": "NotInitializing",
      "type": "error"
    },
    {
      "anonymous": false,
      "inputs": [
        {
          "indexed": true,
          "internalType": "address",
          "name": "owner",
          "type": "address"
        },
        {
          "indexed": true,
          "internalType": "address",
          "name": "spender",
          "type": "address"
        },
        {
          "indexed": false,
          "internalType": "uint256",
          "name": "value",
          "type": "uint256"
        }
      ],
      "name": "Approval",
      "type": "event"
    },
    {
      "anonymous": false,
      "inputs": [
        {
          "indexed": false,
          "internalType": "uint64",
          "name": "version",
          "type": "uint64"
        }
      ],
      "name": "Initialized",
      "type": "event"
    },
    {
      "anonymous": false,
      "inputs": [
        {
          "indexed": true,
          "internalType": "address",
          "name": "previousOwner",
          "type": "address"
        },
        {
          "indexed": true,
          "internalType": "address",
          "name": "newOwner",
          "type": "address"
        }
      ],
      "name": "OwnershipTransferred",
      "type": "event"
    },
    {
      "anonymous": false,
      "inputs": [
        {
          "indexed": true,
          "internalType": "address",
          "name": "from",
          "type": "address"
        },
        {
          "indexed": true,
          "internalType": "address",
          "name": "to",
          "type": "address"
        },
        {
          "indexed": false,
          "internalType": "uint256",
          "name": "value",
          "type": "uint256"
        }
      ],
      "name": "Transfer",
      "type": "event"
    },
    {
      "inputs": [
        {
          "internalType": "address",
          "name": "owner",
          "type": "address"
        },
        {
          "internalType": "address",
          "name": "spender",
          "type": "address"
        }
      ],
      "name": "allowance",
      "outputs": [
        {
          "internalType": "uint256",
          "name": "",
          "type": "uint256"
        }
      ],
      "stateMutability": "view",
      "type": "function"
    },
    {
      "inputs": [
        {
          "internalType": "address",
          "name": "spender",
          "type": "address"
        },
        {
          "internalType": "uint256",
          "name": "value",
          "type": "uint256"
        }
      ],
      "name": "approve",
      "outputs": [
        {
          "internalType": "bool",
          "name": "",
          "type": "bool"
        }
      ],
      "stateMutability": "nonpayable",
      "type": "function"
    },
    {
      "inputs": [
        {
          "internalType": "address",
          "name": "account",
          "type": "address"
        }
      ],
      "name": "balanceOf",
      "outputs": [
        {
          "internalType": "uint256",
          "name": "",
          "type": "uint256"
        }
      ],
      "stateMutability": "view",
      "type": "function"
    },
    {
      "inputs": [],
      "name": "decimals",
      "outputs": [
        {
          "internalType": "uint8",
          "name": "",
          "type": "uint8"
        }
      ],
      "stateMutability": "view",
      "type": "function"
    },
    {
      "inputs": [
        {
          "internalType": "address",
          "name": "_module",
          "type": "address"
        },
        {
          "internalType": "address",
          "name": "_creator",
          "type": "address"
        },
        {
          "internalType": "string",
          "name": "name_",
          "type": "string"
        },
        {
          "internalType": "string",
          "name": "symbol_",
          "type": "string"
        }
      ],
      "name": "initialize",
      "outputs": [],
      "stateMutability": "nonpayable",
      "type": "function"
    },
    {
      "inputs": [],
      "name": "name",
      "outputs": [
        {
          "internalType": "string",
          "name": "",
          "type": "string"
        }
      ],
      "stateMutability": "view",
      "type": "function"
    },
    {
      "inputs": [],
      "name": "owner",
      "outputs": [
        {
          "internalType": "address",
          "name": "",
          "type": "address"
        }
      ],
      "stateMutability": "view",
      "type": "function"
    },
    {
      "inputs": [],
      "name": "renounceOwnership",
      "outputs": [],
      "stateMutability": "nonpayable",
      "type": "function"
    },
    {
      "inputs": [],
      "name": "symbol",
      "outputs": [
        {
          "internalType": "string",
          "name": "",
          "type": "string"
        }
      ],
      "stateMutability": "view",
      "type": "function"
    },
    {
      "inputs": [],
      "name": "totalSupply",
      "outputs": [
        {
          "internalType": "uint256",
          "name": "",
          "type": "uint256"
        }
      ],
      "stateMutability": "view",
      "type": "function"
    },
    {
      "inputs": [
        {
          "internalType": "address",
          "name": "to",
          "type": "address"
        },
        {
          "internalType": "uint256",
          "name": "value",
          "type": "uint256"
        }
      ],
      "name": "transfer",
      "outputs": [
        {
          "internalType": "bool",
          "name": "",
          "type": "bool"
        }
      ],
      "stateMutability": "nonpayable",
      "type": "function"
    },
    {
      "inputs": [
        {
          "internalType": "address",
          "name": "from",
          "type": "address"
        },
        {
          "internalType": "address",
          "name": "to",
          "type": "address"
        },
        {
          "internalType": "uint256",
          "name": "value",
          "type": "uint256"
        }
      ],
      "name": "transferFrom",
      "outputs": [
        {
          "internalType": "bool",
          "name": "",
          "type": "bool"
        }
      ],
      "stateMutability": "nonpayable",
      "type": "function"
    },
    {
      "inputs": [
        {
          "internalType": "address",
          "name": "newOwner",
          "type": "address"
        }
      ],
      "name": "transferOwnership",
      "outputs": [],
      "stateMutability": "nonpayable",
      "type": "function"
    }
  ],
  "bytecode": "0x608060405234801561001057600080fd5b50610fcb806100206000396000f3fe608060405234801561001057600080fd5b50600436106100cf5760003560e01c806370a082311161008c57806395d89b411161006657806395d89b41146101d6578063a9059cbb146101de578063dd62ed3e146101f1578063f2fde38b1461020457600080fd5b806370a082311461017d578063715018a6146101b35780638da5cb5b146101bb57600080fd5b806306fdde03146100d4578063095ea7b3146100f257806318160ddd146101155780632016a0d21461014657806323b872dd1461015b578063313ce5671461016e575b600080fd5b6100dc610217565b6040516100e99190610aad565b60405180910390f35b610105610100366004610b17565b6102da565b60405190151581526020016100e9565b7f52c63247e1f47db19d5ce0460030c497f067ca4cebf71ba98eeadabe20bace02545b6040519081526020016100e9565b610159610154366004610be4565b6102f4565b005b610105610169366004610c69565b610449565b604051601281526020016100e9565b61013861018b366004610ca5565b6001600160a01b03166000908152600080516020610f76833981519152602052604090205490565b61015961046d565b6032546040516001600160a01b0390911681526020016100e9565b6100dc610516565b6101056101ec366004610b17565b610555565b6101386101ff366004610cc7565b610563565b610159610212366004610ca5565b6105ad565b7f52c63247e1f47db19d5ce0460030c497f067ca4cebf71ba98eeadabe20bace038054606091600080516020610f768339815191529161025690610cfa565b80601f016020809104026020016040519081016040528092919081815260200182805461028290610cfa565b80156102cf5780601f106102a4576101008083540402835291602001916102cf565b820191906000526020600020905b8154815290600101906020018083116102b257829003601f168201915b505050505091505090565b6000336102e88185856106c8565b60019150505b92915050565b7ff0c57e16840df040f15088dc2f81fe391c3923bec73e23a9662efc9c229c6a008054600160401b810460ff16159067ffffffffffffffff1660008115801561033a5750825b905060008267ffffffffffffffff1660011480156103575750303b155b905081158015610365575080155b156103835760405163f92ee8a960e01b815260040160405180910390fd5b845467ffffffffffffffff1916600117855583156103ad57845460ff60401b1916600160401b1785555b6103b787876106da565b6103da896103c76012600a610e2e565b6103d5906317d78400610e3d565b6106f0565b6103f8886103ea6012600a610e2e565b6103d5906323c34600610e3d565b831561043e57845460ff60401b19168555604051600181527fc7f505b2f371ae2175ee4913f4499e1f2633a7b5936321eed1cdaeb6115181d29060200160405180910390a15b505050505050505050565b600033610457858285610726565b61046285858561078c565b506001949350505050565b6032546001600160a01b031633146104cc5760405162461bcd60e51b815260206004820181905260248201527f4f776e61626c653a2063616c6c6572206973206e6f7420746865206f776e657260448201526064015b60405180910390fd5b6032546040516000916001600160a01b0316907f8be0079c531659141344cd1fd0a4f28419497f9722a3daafe3b4186f6b6457e0908390a3603280546001600160a01b0319169055565b7f52c63247e1f47db19d5ce0460030c497f067ca4cebf71ba98eeadabe20bace048054606091600080516020610f768339815191529161025690610cfa565b6000336102e881858561078c565b6001600160a01b0391821660009081527f52c63247e1f47db19d5ce0460030c497f067ca4cebf71ba98eeadabe20bace016020908152604080832093909416825291909152205490565b6032546001600160a01b031633146106075760405162461bcd60e51b815260206004820181905260248201527f4f776e61626c653a2063616c6c6572206973206e6f7420746865206f776e657260448201526064016104c3565b6001600160a01b03811661066c5760405162461bcd60e51b815260206004820152602660248201527f4f776e61626c653a206e6577206f776e657220697320746865207a65726f206160448201526564647265737360d01b60648201526084016104c3565b6032546040516001600160a01b038084169216907f8be0079c531659141344cd1fd0a4f28419497f9722a3daafe3b4186f6b6457e090600090a3603280546001600160a01b0319166001600160a01b0392909216919091179055565b6106d583838360016107eb565b505050565b6106e26108d3565b6106ec828261091e565b5050565b6001600160a01b03821661071a5760405163ec442f0560e01b8152600060048201526024016104c3565b6106ec6000838361096f565b60006107328484610563565b90506000198114610786578181101561077757604051637dc7a0d960e11b81526001600160a01b038416600482015260248101829052604481018390526064016104c3565b610786848484840360006107eb565b50505050565b6001600160a01b0383166107b657604051634b637e8f60e11b8152600060048201526024016104c3565b6001600160a01b0382166107e05760405163ec442f0560e01b8152600060048201526024016104c3565b6106d583838361096f565b600080516020610f768339815191526001600160a01b0385166108245760405163e602df0560e01b8152600060048201526024016104c3565b6001600160a01b03841661084e57604051634a1406b160e11b8152600060048201526024016104c3565b6001600160a01b038086166000908152600183016020908152604080832093881683529290522083905581156108cc57836001600160a01b0316856001600160a01b03167f8c5be1e5ebec7d5bd14f71427d1e84f3dd0314c0f7b2291e5b200ac8c7c3b925856040516108c391815260200190565b60405180910390a35b5050505050565b7ff0c57e16840df040f15088dc2f81fe391c3923bec73e23a9662efc9c229c6a0054600160401b900460ff1661091c57604051631afcd79f60e31b815260040160405180910390fd5b565b6109266108d3565b600080516020610f768339815191527f52c63247e1f47db19d5ce0460030c497f067ca4cebf71ba98eeadabe20bace036109608482610ea2565b50600481016107868382610ea2565b600080516020610f768339815191526001600160a01b0384166109ab57818160020160008282546109a09190610f62565b90915550610a1d9050565b6001600160a01b038416600090815260208290526040902054828110156109fe5760405163391434e360e21b81526001600160a01b038616600482015260248101829052604481018490526064016104c3565b6001600160a01b03851660009081526020839052604090209083900390555b6001600160a01b038316610a3b576002810180548390039055610a5a565b6001600160a01b03831660009081526020829052604090208054830190555b826001600160a01b0316846001600160a01b03167fddf252ad1be2c89b69c2b068fc378daa952ba7f163c4a11628f55a4df523b3ef84604051610a9f91815260200190565b60405180910390a350505050565b600060208083528351808285015260005b81811015610ada57858101830151858201604001528201610abe565b506000604082860101526040601f19601f8301168501019250505092915050565b80356001600160a01b0381168114610b1257600080fd5b919050565b60008060408385031215610b2a57600080fd5b610b3383610afb565b946020939093013593505050565b634e487b7160e01b600052604160045260246000fd5b600082601f830112610b6857600080fd5b813567ffffffffffffffff80821115610b8357610b83610b41565b604051601f8301601f19908116603f01168101908282118183101715610bab57610bab610b41565b81604052838152866020858801011115610bc457600080fd5b836020870160208301376000602085830101528094505050505092915050565b60008060008060808587031215610bfa57600080fd5b610c0385610afb565b9350610c1160208601610afb565b9250604085013567ffffffffffffffff80821115610c2e57600080fd5b610c3a88838901610b57565b93506060870135915080821115610c5057600080fd5b50610c5d87828801610b57565b91505092959194509250565b600080600060608486031215610c7e57600080fd5b610c8784610afb565b9250610c9560208501610afb565b9150604084013590509250925092565b600060208284031215610cb757600080fd5b610cc082610afb565b9392505050565b60008060408385031215610cda57600080fd5b610ce383610afb565b9150610cf160208401610afb565b90509250929050565b600181811c90821680610d0e57607f821691505b602082108103610d2e57634e487b7160e01b600052602260045260246000fd5b50919050565b634e487b7160e01b600052601160045260246000fd5b600181815b80851115610d85578160001904821115610d6b57610d6b610d34565b80851615610d7857918102915b93841c9390800290610d4f565b509250929050565b600082610d9c575060016102ee565b81610da9575060006102ee565b8160018114610dbf5760028114610dc957610de5565b60019150506102ee565b60ff841115610dda57610dda610d34565b50506001821b6102ee565b5060208310610133831016604e8410600b8410161715610e08575081810a6102ee565b610e128383610d4a565b8060001904821115610e2657610e26610d34565b029392505050565b6000610cc060ff841683610d8d565b80820281158282048414176102ee576102ee610d34565b601f8211156106d557600081815260208120601f850160051c81016020861015610e7b5750805b601f850160051c820191505b81811015610e9a57828155600101610e87565b505050505050565b815167ffffffffffffffff811115610ebc57610ebc610b41565b610ed081610eca8454610cfa565b84610e54565b602080601f831160018114610f055760008415610eed5750858301515b600019600386901b1c1916600185901b178555610e9a565b600085815260208120601f198616915b82811015610f3457888601518255948401946001909101908401610f15565b5085821015610f525787850151600019600388901b60f8161c191681555b5050505050600190811b01905550565b808201808211156102ee576102ee610d3456fe52c63247e1f47db19d5ce0460030c497f067ca4cebf71ba98eeadabe20bace00a2646970667358221220dfc07a0447e462804a6c7855d8ef5ffbb66724cf718fdc68929e5fb6cf94ac3a64736f6c63430008140033",
  "linkReferences": {},
  "deployedLinkReferences": {}
}