{
  "_format": "hh-sol-artifact-1",
  "contractName": "Module",
  "sourceName": "contracts/Module.sol",
  "abi": [
    {
      "anonymous": false,
      "inputs": [
        {
          "indexed": false,
          "internalType": "uint256",
          "name": "timestamp",
          "type": "uint256"
        }
      ],
      "name": "ModuleUpdated",
      "type": "event"
    },
    {
      "anonymous": false,
      "inputs": [
        {
          "indexed": true,
          "internalType": "address",
          "name": "previousOwner",
          "type": "address"
        },
        {
          "indexed": true,
          "internalType": "address",
          "name": "newOwner",
          "type": "address"
        }
      ],
      "name": "OwnershipTransferred",
      "type": "event"
    },
    {
      "anonymous": false,
      "inputs": [
        {
          "indexed": true,
          "internalType": "address",
          "name": "user",
          "type": "address"
        },
        {
          "indexed": false,
          "internalType": "uint256",
          "name": "amount",
          "type": "uint256"
        },
        {
          "indexed": false,
          "internalType": "uint256",
          "name": "timestamp",
          "type": "uint256"
        }
      ],
      "name": "Staked",
      "type": "event"
    },
    {
      "anonymous": false,
      "inputs": [
        {
          "indexed": true,
          "internalType": "address",
          "name": "user",
          "type": "address"
        },
        {
          "indexed": false,
          "internalType": "uint256",
          "name": "amount",
          "type": "uint256"
        },
        {
          "indexed": false,
          "internalType": "uint256",
          "name": "timestamp",
          "type": "uint256"
        }
      ],
      "name": "UnStaked",
      "type": "event"
    },
    {
      "inputs": [
        {
          "internalType": "address",
          "name": "stakeToken",
          "type": "address"
        }
      ],
      "name": "claimReward",
      "outputs": [],
      "stateMutability": "nonpayable",
      "type": "function"
    },
    {
      "inputs": [],
      "name": "compToken",
      "outputs": [
        {
          "internalType": "address",
          "name": "",
          "type": "address"
        }
      ],
      "stateMutability": "view",
      "type": "function"
    },
    {
      "inputs": [],
      "name": "compTotalStaked",
      "outputs": [
        {
          "internalType": "uint256",
          "name": "",
          "type": "uint256"
        }
      ],
      "stateMutability": "view",
      "type": "function"
    },
    {
      "inputs": [],
      "name": "distributeRewards",
      "outputs": [],
      "stateMutability": "nonpayable",
      "type": "function"
    },
    {
      "inputs": [
        {
          "internalType": "address",
          "name": "account",
          "type": "address"
        },
        {
          "internalType": "address",
          "name": "stakeToken",
          "type": "address"
        }
      ],
      "name": "earned",
      "outputs": [
        {
          "internalType": "uint256",
          "name": "",
          "type": "uint256"
        }
      ],
      "stateMutability": "view",
      "type": "function"
    },
    {
      "inputs": [
        {
          "internalType": "address",
          "name": "payaddress",
          "type": "address"
        },
        {
          "internalType": "address",
          "name": "tokenAddress",
          "type": "address"
        },
        {
          "internalType": "uint256",
          "name": "tokens",
          "type": "uint256"
        }
      ],
      "name": "emergencyWithdrawToken",
      "outputs": [],
      "stateMutability": "nonpayable",
      "type": "function"
    },
    {
      "inputs": [],
      "name": "emission",
      "outputs": [
        {
          "internalType": "uint256",
          "name": "",
          "type": "uint256"
        }
      ],
      "stateMutability": "view",
      "type": "function"
    },
    {
      "inputs": [],
      "name": "factory",
      "outputs": [
        {
          "internalType": "address",
          "name": "",
          "type": "address"
        }
      ],
      "stateMutability": "view",
      "type": "function"
    },
    {
      "inputs": [],
      "name": "getDecimal",
      "outputs": [
        {
          "internalType": "uint8",
          "name": "",
          "type": "uint8"
        }
      ],
      "stateMutability": "view",
      "type": "function"
    },
    {
      "inputs": [],
      "name": "getHolders",
      "outputs": [
        {
          "internalType": "address[]",
          "name": "",
          "type": "address[]"
        },
        {
          "internalType": "address[]",
          "name": "",
          "type": "address[]"
        }
      ],
      "stateMutability": "view",
      "type": "function"
    },
    {
      "inputs": [],
      "name": "getModuleInfo",
      "outputs": [
        {
          "internalType": "address",
          "name": "",
          "type": "address"
        },
        {
          "internalType": "string",
          "name": "",
          "type": "string"
        },
        {
          "internalType": "string",
          "name": "",
          "type": "string"
        },
        {
          "internalType": "string",
          "name": "",
          "type": "string"
        },
        {
          "internalType": "address[]",
          "name": "",
          "type": "address[]"
        },
        {
          "internalType": "address[]",
          "name": "",
          "type": "address[]"
        },
        {
          "internalType": "uint256",
          "name": "",
          "type": "uint256"
        },
        {
          "internalType": "address",
          "name": "",
          "type": "address"
        },
        {
          "internalType": "address",
          "name": "",
          "type": "address"
        },
        {
          "internalType": "uint256",
          "name": "",
          "type": "uint256"
        }
      ],
      "stateMutability": "view",
      "type": "function"
    },
    {
      "inputs": [],
      "name": "getPositionInfo",
      "outputs": [
        {
          "internalType": "address",
          "name": "token0",
          "type": "address"
        },
        {
          "internalType": "address",
          "name": "token1",
          "type": "address"
        },
        {
          "internalType": "uint24",
          "name": "fee",
          "type": "uint24"
        },
        {
          "internalType": "uint128",
          "name": "liquidity",
          "type": "uint128"
        },
        {
          "internalType": "uint128",
          "name": "tokensOwed0",
          "type": "uint128"
        },
        {
          "internalType": "uint128",
          "name": "tokensOwed1",
          "type": "uint128"
        }
      ],
      "stateMutability": "view",
      "type": "function"
    },
    {
      "inputs": [
        {
          "internalType": "address",
          "name": "user",
          "type": "address"
        }
      ],
      "name": "getUserStaked",
      "outputs": [
        {
          "internalType": "uint256",
          "name": "",
          "type": "uint256"
        },
        {
          "internalType": "uint256",
          "name": "",
          "type": "uint256"
        }
      ],
      "stateMutability": "view",
      "type": "function"
    },
    {
      "inputs": [
        {
          "internalType": "address",
          "name": "_v3Router",
          "type": "address"
        },
        {
          "internalType": "address",
          "name": "_tokenAddr",
          "type": "address"
        },
        {
          "internalType": "address",
          "name": "_compToken",
          "type": "address"
        },
        {
          "internalType": "address",
          "name": "_creator",
          "type": "address"
        },
        {
          "internalType": "uint256",
          "name": "_emission",
          "type": "uint256"
        },
        {
          "internalType": "string",
          "name": "_moduleDetails",
          "type": "string"
        },
        {
          "internalType": "address",
          "name": "moduleManager",
          "type": "address"
        }
      ],
      "name": "initialize",
      "outputs": [],
      "stateMutability": "nonpayable",
      "type": "function"
    },
    {
      "inputs": [
        {
          "internalType": "bytes32",
          "name": "",
          "type": "bytes32"
        }
      ],
      "name": "lastUpdateTimeOf",
      "outputs": [
        {
          "internalType": "uint256",
          "name": "",
          "type": "uint256"
        }
      ],
      "stateMutability": "view",
      "type": "function"
    },
    {
      "inputs": [],
      "name": "moduleDetails",
      "outputs": [
        {
          "internalType": "string",
          "name": "",
          "type": "string"
        }
      ],
      "stateMutability": "view",
      "type": "function"
    },
    {
      "inputs": [
        {
          "internalType": "address",
          "name": "",
          "type": "address"
        },
        {
          "internalType": "address",
          "name": "",
          "type": "address"
        },
        {
          "internalType": "uint256",
          "name": "",
          "type": "uint256"
        },
        {
          "internalType": "bytes",
          "name": "",
          "type": "bytes"
        }
      ],
      "name": "onERC721Received",
      "outputs": [
        {
          "internalType": "bytes4",
          "name": "",
          "type": "bytes4"
        }
      ],
      "stateMutability": "nonpayable",
      "type": "function"
    },
    {
      "inputs": [],
      "name": "owner",
      "outputs": [
        {
          "internalType": "address",
          "name": "",
          "type": "address"
        }
      ],
      "stateMutability": "view",
      "type": "function"
    },
    {
      "inputs": [],
      "name": "renounceOwnership",
      "outputs": [],
      "stateMutability": "nonpayable",
      "type": "function"
    },
    {
      "inputs": [
        {
          "internalType": "bytes32",
          "name": "",
          "type": "bytes32"
        }
      ],
      "name": "rewards",
      "outputs": [
        {
          "internalType": "uint256",
          "name": "",
          "type": "uint256"
        }
      ],
      "stateMutability": "view",
      "type": "function"
    },
    {
      "inputs": [
        {
          "internalType": "uint256",
          "name": "_amount",
          "type": "uint256"
        },
        {
          "internalType": "address",
          "name": "stakeToken",
          "type": "address"
        }
      ],
      "name": "stake",
      "outputs": [],
      "stateMutability": "nonpayable",
      "type": "function"
    },
    {
      "inputs": [
        {
          "internalType": "bytes32",
          "name": "",
          "type": "bytes32"
        }
      ],
      "name": "stakesOf",
      "outputs": [
        {
          "internalType": "uint256",
          "name": "",
          "type": "uint256"
        }
      ],
      "stateMutability": "view",
      "type": "function"
    },
    {
      "inputs": [],
      "name": "token",
      "outputs": [
        {
          "internalType": "address",
          "name": "",
          "type": "address"
        }
      ],
      "stateMutability": "view",
      "type": "function"
    },
    {
      "inputs": [],
      "name": "tokenId",
      "outputs": [
        {
          "internalType": "uint256",
          "name": "",
          "type": "uint256"
        }
      ],
      "stateMutability": "view",
      "type": "function"
    },
    {
      "inputs": [],
      "name": "totalStaked",
      "outputs": [
        {
          "internalType": "uint256",
          "name": "",
          "type": "uint256"
        }
      ],
      "stateMutability": "view",
      "type": "function"
    },
    {
      "inputs": [
        {
          "internalType": "address",
          "name": "newOwner",
          "type": "address"
        }
      ],
      "name": "transferOwnership",
      "outputs": [],
      "stateMutability": "nonpayable",
      "type": "function"
    },
    {
      "inputs": [
        {
          "internalType": "uint256",
          "name": "_amount",
          "type": "uint256"
        },
        {
          "internalType": "address",
          "name": "stakeToken",
          "type": "address"
        }
      ],
      "name": "unStake",
      "outputs": [],
      "stateMutability": "nonpayable",
      "type": "function"
    },
    {
      "inputs": [
        {
          "internalType": "uint256",
          "name": "newEmission",
          "type": "uint256"
        }
      ],
      "name": "updateEmission",
      "outputs": [],
      "stateMutability": "nonpayable",
      "type": "function"
    },
    {
      "inputs": [
        {
          "internalType": "uint256",
          "name": "newEmission",
          "type": "uint256"
        },
        {
          "internalType": "string",
          "name": "details_",
          "type": "string"
        }
      ],
      "name": "updateEmissionModuleDetails",
      "outputs": [],
      "stateMutability": "nonpayable",
      "type": "function"
    },
    {
      "inputs": [
        {
          "internalType": "string",
          "name": "details_",
          "type": "string"
        }
      ],
      "name": "updateModuleDetails",
      "outputs": [],
      "stateMutability": "nonpayable",
      "type": "function"
    },
    {
      "inputs": [],
      "name": "v3Pair",
      "outputs": [
        {
          "internalType": "address",
          "name": "",
          "type": "address"
        }
      ],
      "stateMutability": "view",
      "type": "function"
    },
    {
      "inputs": [],
      "name": "v3Router",
      "outputs": [
        {
          "internalType": "address",
          "name": "",
          "type": "address"
        }
      ],
      "stateMutability": "view",
      "type": "function"
    },
    {
      "stateMutability": "payable",
      "type": "receive"
    }
  ],
  "bytecode": "0x608060405234801561001057600080fd5b506137b4806100206000396000f3fe6080604052600436106101e75760003560e01c806378e7223911610102578063ad7d22f411610095578063dac3fc3f11610064578063dac3fc3f14610609578063e5a6bde71461063e578063f2fde38b1461065e578063fc0c546a1461067e57600080fd5b8063ad7d22f41461057a578063c45a0155146105a7578063c774a761146105c7578063d279c191146105e957600080fd5b80638814e0e7116100d15780638814e0e71461049f5780638da5cb5b14610502578063938d967a146105205780639c6fb3521461054d57600080fd5b806378e72239146104335780637acb775714610453578063817b1cd214610473578063827c049e1461048957600080fd5b806356b2d8b21161017a5780636c217a02116101495780636c217a02146103d35780636f4a2cd0146103f357806370a713f714610408578063715018a61461041e57600080fd5b806356b2d8b2146103505780635fdcf49c146103705780635fe8e7cc146103905780636605dfa7146103b357600080fd5b8063211dc32d116101b6578063211dc32d146102c7578063277327a5146102e757806330d5e73c1461030957806334ce10c41461032957600080fd5b80630b40d570146101f35780630dc9130614610227578063150b7a021461025f57806317d70f7c146102a357600080fd5b366101ee57005b600080fd5b3480156101ff57600080fd5b5061020861069e565b60405161021e9a99989796959493929190612cd6565b60405180910390f35b34801561023357600080fd5b50606b54610247906001600160a01b031681565b6040516001600160a01b03909116815260200161021e565b34801561026b57600080fd5b5061028a61027a366004612e39565b630a85bd0160e11b949350505050565b6040516001600160e01b0319909116815260200161021e565b3480156102af57600080fd5b506102b9606d5481565b60405190815260200161021e565b3480156102d357600080fd5b506102b96102e2366004612eb9565b610922565b3480156102f357600080fd5b50610307610302366004612ef2565b6109af565b005b34801561031557600080fd5b50610307610324366004612f53565b610a5b565b34801561033557600080fd5b5061033e611111565b60405160ff909116815260200161021e565b34801561035c57600080fd5b50606c54610247906001600160a01b031681565b34801561037c57600080fd5b5061030761038b366004612ff9565b61118b565b34801561039c57600080fd5b506103a56111f8565b60405161021e92919061302e565b3480156103bf57600080fd5b50607154610247906001600160a01b031681565b3480156103df57600080fd5b506103076103ee36600461305c565b61135c565b3480156103ff57600080fd5b506103076116c1565b34801561041457600080fd5b506102b9606a5481565b34801561042a57600080fd5b5061030761191c565b34801561043f57600080fd5b5061030761044e366004613081565b611990565b34801561045f57600080fd5b5061030761046e36600461305c565b6119bf565b34801561047f57600080fd5b506102b960695481565b34801561049557600080fd5b506102b9606f5481565b3480156104ab57600080fd5b506104b4611ca3565b604080516001600160a01b03978816815296909516602087015262ffffff909316938501939093526001600160801b03908116606085015291821660808401521660a082015260c00161021e565b34801561050e57600080fd5b506033546001600160a01b0316610247565b34801561052c57600080fd5b506102b961053b366004613081565b60686020526000908152604090205481565b34801561055957600080fd5b506102b9610568366004613081565b60676020526000908152604090205481565b34801561058657600080fd5b506102b9610595366004613081565b60666020526000908152604090205481565b3480156105b357600080fd5b50606e54610247906001600160a01b031681565b3480156105d357600080fd5b506105dc611d72565b60405161021e919061309a565b3480156105f557600080fd5b506103076106043660046130ad565b611e00565b34801561061557600080fd5b506106296106243660046130ad565b611fa9565b6040805192835260208301919091520161021e565b34801561064a57600080fd5b506103076106593660046130ca565b61200b565b34801561066a57600080fd5b506103076106793660046130ad565b61207e565b34801561068a57600080fd5b50607054610247906001600160a01b031681565b6000606080606080606060008060008060006106ba6073612169565b67ffffffffffffffff8111156106d2576106d2612d8c565b6040519080825280602002602001820160405280156106fb578160200160208202803683370190505b509050600061070a6075612169565b67ffffffffffffffff81111561072257610722612d8c565b60405190808252806020026020018201604052801561074b578160200160208202803683370190505b5090506107566111f8565b607054604080516306fdde0360e01b815290519395509193506001600160a01b03169182916306fdde039160048083019260009291908290030181865afa1580156107a5573d6000803e3d6000fd5b505050506040513d6000823e601f3d908101601f191682016040526107cd9190810190613111565b607060009054906101000a90046001600160a01b03166001600160a01b03166395d89b416040518163ffffffff1660e01b8152600401600060405180830381865afa158015610820573d6000803e3d6000fd5b505050506040513d6000823e601f3d908101601f191682016040526108489190810190613111565b60728585606f546108616033546001600160a01b031690565b606c54606d5486546001600160a01b039092169187906108809061317f565b80601f01602080910402602001604051908101604052809291908181526020018280546108ac9061317f565b80156108f95780601f106108ce576101008083540402835291602001916108f9565b820191906000526020600020905b8154815290600101906020018083116108dc57829003601f168201915b505050505096509b509b509b509b509b509b509b509b509b509b50505090919293949596979899565b60008061092f8484612173565b600081815260686020908152604080832054606f546067909352922054929350909162015180916127109161096490426131cf565b60008681526066602052604090205461097d91906131e2565b61098791906131e2565b610991919061320f565b61099b919061320f565b6109a59190613223565b9150505b92915050565b6033546001600160a01b031633146109e25760405162461bcd60e51b81526004016109d990613236565b60405180910390fd5b60405163a9059cbb60e01b81526001600160a01b0384811660048301526024820183905283169063a9059cbb906044016020604051808303816000875af1158015610a31573d6000803e3d6000fd5b505050506040513d601f19601f82011682018060405250810190610a55919061326b565b50505050565b600054610100900460ff1680610a705750303b155b80610a7e575060005460ff16155b610a9a5760405162461bcd60e51b81526004016109d99061328d565b600054610100900460ff16158015610abc576000805461ffff19166101011790555b6001600160a01b038716610b0a5760405162461bcd60e51b8152602060048201526015602482015274496e76616c696420546f6b656e206164647265737360581b60448201526064016109d9565b610b126121bd565b610b1b8561207e565b606b80546001600160a01b03808b166001600160a01b031992831617909255606e8054858416908316179055606f869055607080548a841690831617905560718054928916929091169190911790556072610b768482613321565b506070546071546109c49160009182918291829182916001600160a01b0391821691161115610c96576070546071546040516370a0823160e01b81523060048201526001600160a01b0392831697509116945060029086906370a0823190602401602060405180830381865afa158015610bf4573d6000803e3d6000fd5b505050506040513d601f19601f82011682018060405250810190610c1891906133e1565b610c22919061320f565b6071546040516370a0823160e01b81523060048201529194506001600160a01b0316906370a0823190602401602060405180830381865afa158015610c6b573d6000803e3d6000fd5b505050506040513d601f19601f82011682018060405250810190610c8f91906133e1565b9150610d8b565b6071546070546040516370a0823160e01b81523060048201526001600160a01b0392831697509116945085906370a0823190602401602060405180830381865afa158015610ce8573d6000803e3d6000fd5b505050506040513d601f19601f82011682018060405250810190610d0c91906133e1565b6070546040516370a0823160e01b81523060048201529194506002916001600160a01b03909116906370a0823190602401602060405180830381865afa158015610d5a573d6000803e3d6000fd5b505050506040513d601f19601f82011682018060405250810190610d7e91906133e1565b610d88919061320f565b91505b60008311610dea5760405162461bcd60e51b815260206004820152602660248201527f616d6f756e7430546f416464206d7573742062652067726561746572207468616044820152656e207a65726f60d01b60648201526084016109d9565b60008211610e495760405162461bcd60e51b815260206004820152602660248201527f616d6f756e7431546f416464206d7573742062652067726561746572207468616044820152656e207a65726f60d01b60648201526084016109d9565b606b54610e63906001600160a01b03878116911685612243565b606b54610e7d906001600160a01b03868116911684612243565b606b546001600160a01b03166313ead562868689610ea8610ea388600160c01b8b61238b565b612447565b6040516001600160e01b031960e087901b1681526001600160a01b039485166004820152928416602484015262ffffff90911660448301529190911660648201526084016020604051808303816000875af1158015610f0b573d6000803e3d6000fd5b505050506040513d601f19601f82011682018060405250810190610f2f919061340a565b606c80546001600160a01b0319166001600160a01b03929092169182179055604080516334324e9f60e21b8152905163d0c93a7c916004808201926020929091908290030181865afa158015610f89573d6000803e3d6000fd5b505050506040513d601f19601f82011682018060405250810190610fad9190613439565b90506000604051806101600160405280876001600160a01b03168152602001866001600160a01b031681526020018862ffffff1681526020018384620d89e719610ff79190613454565b611001919061348e565b60020b81526020018361101781620d89e8613454565b611021919061348e565b60020b81526020018581526020018481526020016000815260200160008152602001306001600160a01b03168152602001428152509050600080600080606b60009054906101000a90046001600160a01b03166001600160a01b03166388316456866040518263ffffffff1660e01b815260040161109f91906134ae565b6080604051808303816000875af11580156110be573d6000803e3d6000fd5b505050506040513d601f19601f820116820180604052508101906110e29190613589565b505050606d55505089159850611107975050505050505050576000805461ff00191690555b5050505050505050565b600080607060009054906101000a90046001600160a01b03166001600160a01b031663313ce5676040518163ffffffff1660e01b8152600401602060405180830381865afa158015611167573d6000803e3d6000fd5b505050506040513d601f19601f820116820180604052508101906109a991906135c5565b6033546001600160a01b031633146111b55760405162461bcd60e51b81526004016109d990613236565b60726111c18282613321565b506040514281527ff62fedf69537bc05d66e63245718cc57d1d82ff8d162cb777497ab2e9078ef659060200160405180910390a150565b60608060006112076073612169565b67ffffffffffffffff81111561121f5761121f612d8c565b604051908082528060200260200182016040528015611248578160200160208202803683370190505b50905060005b6112586073612169565b8110156112a65761126a6073826125a0565b82828151811061127c5761127c6135e8565b6001600160a01b03909216602092830291909101909101528061129e816135fe565b91505061124e565b5060006112b36075612169565b67ffffffffffffffff8111156112cb576112cb612d8c565b6040519080825280602002602001820160405280156112f4578160200160208202803683370190505b50905060005b6113046075612169565b811015611352576113166075826125a0565b828281518110611328576113286135e8565b6001600160a01b03909216602092830291909101909101528061134a816135fe565b9150506112fa565b5090939092509050565b607054339082906001600160a01b038083169116148061138957506071546001600160a01b038281169116145b6113a55760405162461bcd60e51b81526004016109d990613617565b6001600160a01b038216156113eb5760006113c08383612173565b90506113cc8383610922565b6000918252606860209081526040808420929092556067905290204290555b6033546001600160a01b031633036114415760405162461bcd60e51b815260206004820152601960248201527831b932b0ba37b91031b0b713ba1039ba30b5b2903a37b5b2b760391b60448201526064016109d9565b6070546001600160a01b038481169116148061146a57506071546001600160a01b038481169116145b6114c25760405162461bcd60e51b815260206004820152602360248201527f53686f756c6420756e7374616b65206d6f64756c6520746f6b656e206f72204360448201526204f4d560ec1b60648201526084016109d9565b60006114ce3385612173565b600081815260666020526040902054909150851061153c5760405162461bcd60e51b815260206004820152602560248201527f556e7374616b696e6720616d6f756e7420657863656564207374616b656420616044820152641b5bdd5b9d60da1b60648201526084016109d9565b60008181526066602052604081205461155590876125ac565b9050806000036115a9576070546001600160a01b039081169086160361158657611580607333612608565b506115a9565b6071546001600160a01b03908116908616036115a9576115a7607533612608565b505b60008281526066602052604090208190556070546001600160a01b03908116908616036115e5576069546115dd90876125ac565b60695561160c565b6071546001600160a01b039081169086160361160c57606a5461160890876125ac565b606a555b60405163a9059cbb60e01b8152336004820152602481018790526001600160a01b0386169063a9059cbb906044016020604051808303816000875af1158015611659573d6000803e3d6000fd5b505050506040513d601f19601f8201168201806040525081019061167d919061326b565b506040805187815242602082015233917ff26c0304cc83daf500e1dc22ab2e3cf954b3d506d62e34d70cc054255079e39791015b60405180910390a2505050505050565b6033546001600160a01b031633146116eb5760405162461bcd60e51b81526004016109d990613236565b60008060005b6116fb6073612169565b811015611802576117216117106073836125a0565b6070546001600160a01b0316610922565b60705490925061173b9033906001600160a01b0316612173565b600081815260686020908152604080832083905560679091529020429055925081156117f0576070546001600160a01b031663a9059cbb61177d6073846125a0565b6040516001600160e01b031960e084901b1681526001600160a01b039091166004820152602481018590526044016020604051808303816000875af11580156117ca573d6000803e3d6000fd5b505050506040513d601f19601f820116820180604052508101906117ee919061326b565b505b806117fa816135fe565b9150506116f1565b5060005b6118106075612169565b811015611917576118366118256075836125a0565b6071546001600160a01b0316610922565b6071549092506118509033906001600160a01b0316612173565b60008181526068602090815260408083208390556067909152902042905592508115611905576071546001600160a01b031663a9059cbb6118926075846125a0565b6040516001600160e01b031960e084901b1681526001600160a01b039091166004820152602481018590526044016020604051808303816000875af11580156118df573d6000803e3d6000fd5b505050506040513d601f19601f82011682018060405250810190611903919061326b565b505b8061190f816135fe565b915050611806565b505050565b6033546001600160a01b031633146119465760405162461bcd60e51b81526004016109d990613236565b6033546040516000916001600160a01b0316907f8be0079c531659141344cd1fd0a4f28419497f9722a3daafe3b4186f6b6457e0908390a3603380546001600160a01b0319169055565b6033546001600160a01b031633146119ba5760405162461bcd60e51b81526004016109d990613236565b606f55565b607054339082906001600160a01b03808316911614806119ec57506071546001600160a01b038281169116145b611a085760405162461bcd60e51b81526004016109d990613617565b6001600160a01b03821615611a4e576000611a238383612173565b9050611a2f8383610922565b6000918252606860209081526040808420929092556067905290204290555b6033546001600160a01b03163303611aa45760405162461bcd60e51b815260206004820152601960248201527831b932b0ba37b91031b0b713ba1039ba30b5b2903a37b5b2b760391b60448201526064016109d9565b6070546001600160a01b0384811691161480611acd57506071546001600160a01b038481169116145b611ae95760405162461bcd60e51b81526004016109d990613617565b6070546001600160a01b0390811690841603611b2057611b0a60733361261d565b611b1b57611b1960733361263f565b505b611b52565b6071546001600160a01b0390811690841603611b5257611b4160753361261d565b611b5257611b5060753361263f565b505b6000611b5e3385612173565b9050611b756001600160a01b038516333088612654565b600081815260666020526040812054611b8e908761268c565b60008381526066602052604081205491925003611c0957606e546040516374d5729b60e11b81523360048201523060248201526001600160a01b039091169063e9aae53690604401600060405180830381600087803b158015611bf057600080fd5b505af1158015611c04573d6000803e3d6000fd5b505050505b60008281526066602052604090208190556070546001600160a01b0390811690861603611c4557606954611c3d908761268c565b606955611c6c565b6071546001600160a01b0390811690861603611c6c57606a54611c68908761268c565b606a555b6040805187815242602082015233917f1449c6dd7851abc30abf37f57715f492010519147cc2652fbc38202c18a6ee9091016116b1565b606b54606d5460405163133f757160e31b8152600092839283928392839283926001600160a01b03909216916399fbab8891611ce59160040190815260200190565b61018060405180830381865afa158015611d03573d6000803e3d6000fd5b505050506040513d601f19601f82011682018060405250810190611d27919061366b565b909192939495969798999a5090919293949596979899509091929394955090919293945090919250909150809650819750829850839950849a50859b50505050505050909192939495565b60728054611d7f9061317f565b80601f0160208091040260200160405190810160405280929190818152602001828054611dab9061317f565b8015611df85780601f10611dcd57610100808354040283529160200191611df8565b820191906000526020600020905b815481529060010190602001808311611ddb57829003601f168201915b505050505081565b607054339082906001600160a01b0380831691161480611e2d57506071546001600160a01b038281169116145b611e495760405162461bcd60e51b81526004016109d990613617565b6001600160a01b03821615611e8f576000611e648383612173565b9050611e708383610922565b6000918252606860209081526040808420929092556067905290204290555b6070546001600160a01b0384811691161480611eb857506071546001600160a01b038481169116145b611f0e5760405162461bcd60e51b815260206004820152602160248201527f53686f756c6420636c61696d206d6f64756c6520746f6b656e206f7220434f4d6044820152600560fc1b60648201526084016109d9565b6000611f1a3385612173565b60008181526068602052604080822080549290555163a9059cbb60e01b815233600482015260248101829052919250906001600160a01b0386169063a9059cbb906044016020604051808303816000875af1158015611f7d573d6000803e3d6000fd5b505050506040513d601f19601f82011682018060405250810190611fa1919061326b565b505050505050565b60705460009081908190611fc79085906001600160a01b0316612173565b60008181526066602052604090205460715491925090611ff19086906001600160a01b0316612173565b600090815260666020526040902054909590945092505050565b6033546001600160a01b031633146120355760405162461bcd60e51b81526004016109d990613236565b606f82905560726120468282613321565b506040514281527ff62fedf69537bc05d66e63245718cc57d1d82ff8d162cb777497ab2e9078ef659060200160405180910390a15050565b6033546001600160a01b031633146120a85760405162461bcd60e51b81526004016109d990613236565b6001600160a01b03811661210d5760405162461bcd60e51b815260206004820152602660248201527f4f776e61626c653a206e6577206f776e657220697320746865207a65726f206160448201526564647265737360d01b60648201526084016109d9565b6033546040516001600160a01b038084169216907f8be0079c531659141344cd1fd0a4f28419497f9722a3daafe3b4186f6b6457e090600090a3603380546001600160a01b0319166001600160a01b0392909216919091179055565b60006109a9825490565b6040516bffffffffffffffffffffffff19606084811b8216602084015283901b16603482015260009060480160405160208183030381529060405280519060200120905092915050565b600054610100900460ff16806121d25750303b155b806121e0575060005460ff16155b6121fc5760405162461bcd60e51b81526004016109d99061328d565b600054610100900460ff1615801561221e576000805461ffff19166101011790555b6122266126eb565b61222e61275f565b8015612240576000805461ff00191690555b50565b8015806122bd5750604051636eb1769f60e11b81523060048201526001600160a01b03838116602483015284169063dd62ed3e90604401602060405180830381865afa158015612297573d6000803e3d6000fd5b505050506040513d601f19601f820116820180604052508101906122bb91906133e1565b155b6123285760405162461bcd60e51b815260206004820152603660248201527f5361666545524332303a20617070726f76652066726f6d206e6f6e2d7a65726f60448201527520746f206e6f6e2d7a65726f20616c6c6f77616e636560501b60648201526084016109d9565b6040516001600160a01b03831660248201526044810182905261191790849063095ea7b360e01b906064015b60408051601f198184030181529190526020810180516001600160e01b03166001600160e01b031990931692909217909152612817565b60008383028160001985870982811083820303915050806000036123c2578382816123b8576123b86131f9565b0492505050612440565b8084116123d9576123d960038515026011186128e9565b6000848688096000868103871696879004966002600389028118808a02820302808a02820302808a02820302808a02820302808a02820302808a02909103029181900381900460010186841190950394909402919094039290920491909117919091029150505b9392505050565b600060018211612455575090565b816001600160801b821061246e5760809190911c9060401b5b6801000000000000000082106124895760409190911c9060201b5b64010000000082106124a05760209190911c9060101b5b6201000082106124b55760109190911c9060081b5b61010082106124c95760089190911c9060041b5b601082106124dc5760049190911c9060021b5b600482106124e85760011b5b600302600190811c90818581612500576125006131f9565b048201901c90506001818581612518576125186131f9565b048201901c90506001818581612530576125306131f9565b048201901c90506001818581612548576125486131f9565b048201901c90506001818581612560576125606131f9565b048201901c90506001818581612578576125786131f9565b048201901c9050612597818581612591576125916131f9565b04821190565b90039392505050565b600061244083836128fb565b6000828211156125fe5760405162461bcd60e51b815260206004820152601e60248201527f536166654d6174683a207375627472616374696f6e206f766572666c6f77000060448201526064016109d9565b61244082846131cf565b6000612440836001600160a01b038416612981565b6001600160a01b03811660009081526001830160205260408120541515612440565b6000612440836001600160a01b038416612a7b565b6040516001600160a01b0380851660248301528316604482015260648101829052610a559085906323b872dd60e01b90608401612354565b6000806126998385613223565b9050838110156124405760405162461bcd60e51b815260206004820152601b60248201527f536166654d6174683a206164646974696f6e206f766572666c6f77000000000060448201526064016109d9565b600054610100900460ff16806127005750303b155b8061270e575060005460ff16155b61272a5760405162461bcd60e51b81526004016109d99061328d565b600054610100900460ff1615801561222e576000805461ffff19166101011790558015612240576000805461ff001916905550565b600054610100900460ff16806127745750303b155b80612782575060005460ff16155b61279e5760405162461bcd60e51b81526004016109d99061328d565b600054610100900460ff161580156127c0576000805461ffff19166101011790555b603380546001600160a01b0319163390811790915560405181906000907f8be0079c531659141344cd1fd0a4f28419497f9722a3daafe3b4186f6b6457e0908290a3508015612240576000805461ff001916905550565b600061286c826040518060400160405280602081526020017f5361666545524332303a206c6f772d6c6576656c2063616c6c206661696c6564815250856001600160a01b0316612aca9092919063ffffffff16565b805190915015611917578080602001905181019061288a919061326b565b6119175760405162461bcd60e51b815260206004820152602a60248201527f5361666545524332303a204552433230206f7065726174696f6e20646964206e6044820152691bdd081cdd58d8d9595960b21b60648201526084016109d9565b634e487b71600052806020526024601cfd5b815460009082106129595760405162461bcd60e51b815260206004820152602260248201527f456e756d657261626c655365743a20696e646578206f7574206f6620626f756e604482015261647360f01b60648201526084016109d9565b82600001828154811061296e5761296e6135e8565b9060005260206000200154905092915050565b60008181526001830160205260408120548015612a6a5760006129a56001836131cf565b85549091506000906129b9906001906131cf565b905060008660000182815481106129d2576129d26135e8565b90600052602060002001549050808760000184815481106129f5576129f56135e8565b600091825260209091200155612a0c836001613223565b60008281526001890160205260409020558654879080612a2e57612a2e61374c565b600190038181906000526020600020016000905590558660010160008781526020019081526020016000206000905560019450505050506109a9565b60009150506109a9565b5092915050565b6000818152600183016020526040812054612ac2575081546001818101845560008481526020808220909301849055845484825282860190935260409020919091556109a9565b5060006109a9565b6060612ad98484600085612ae1565b949350505050565b606082471015612b425760405162461bcd60e51b815260206004820152602660248201527f416464726573733a20696e73756666696369656e742062616c616e636520666f6044820152651c8818d85b1b60d21b60648201526084016109d9565b843b612b905760405162461bcd60e51b815260206004820152601d60248201527f416464726573733a2063616c6c20746f206e6f6e2d636f6e747261637400000060448201526064016109d9565b600080866001600160a01b03168587604051612bac9190613762565b60006040518083038185875af1925050503d8060008114612be9576040519150601f19603f3d011682016040523d82523d6000602084013e612bee565b606091505b5091509150612bfe828286612c09565b979650505050505050565b60608315612c18575081612440565b825115612c285782518084602001fd5b8160405162461bcd60e51b81526004016109d9919061309a565b60005b83811015612c5d578181015183820152602001612c45565b50506000910152565b60008151808452612c7e816020860160208601612c42565b601f01601f19169290920160200192915050565b600081518084526020808501945080840160005b83811015612ccb5781516001600160a01b031687529582019590820190600101612ca6565b509495945050505050565b6001600160a01b038b8116825261014060208301819052600091612cfc8483018e612c66565b91508382036040850152612d10828d612c66565b91508382036060850152612d24828c612c66565b91508382036080850152612d38828b612c92565b915083820360a0850152612d4c828a612c92565b60c085019890985295861660e084015250509190921661010082015261012001529695505050505050565b6001600160a01b038116811461224057600080fd5b634e487b7160e01b600052604160045260246000fd5b604051601f8201601f1916810167ffffffffffffffff81118282101715612dcb57612dcb612d8c565b604052919050565b600067ffffffffffffffff821115612ded57612ded612d8c565b50601f01601f191660200190565b6000612e0e612e0984612dd3565b612da2565b9050828152838383011115612e2257600080fd5b828260208301376000602084830101529392505050565b60008060008060808587031215612e4f57600080fd5b8435612e5a81612d77565b93506020850135612e6a81612d77565b925060408501359150606085013567ffffffffffffffff811115612e8d57600080fd5b8501601f81018713612e9e57600080fd5b612ead87823560208401612dfb565b91505092959194509250565b60008060408385031215612ecc57600080fd5b8235612ed781612d77565b91506020830135612ee781612d77565b809150509250929050565b600080600060608486031215612f0757600080fd5b8335612f1281612d77565b92506020840135612f2281612d77565b929592945050506040919091013590565b600082601f830112612f4457600080fd5b61244083833560208501612dfb565b600080600080600080600060e0888a031215612f6e57600080fd5b8735612f7981612d77565b96506020880135612f8981612d77565b95506040880135612f9981612d77565b94506060880135612fa981612d77565b93506080880135925060a088013567ffffffffffffffff811115612fcc57600080fd5b612fd88a828b01612f33565b92505060c0880135612fe981612d77565b8091505092959891949750929550565b60006020828403121561300b57600080fd5b813567ffffffffffffffff81111561302257600080fd5b6109a584828501612f33565b6040815260006130416040830185612c92565b82810360208401526130538185612c92565b95945050505050565b6000806040838503121561306f57600080fd5b823591506020830135612ee781612d77565b60006020828403121561309357600080fd5b5035919050565b6020815260006124406020830184612c66565b6000602082840312156130bf57600080fd5b813561244081612d77565b600080604083850312156130dd57600080fd5b82359150602083013567ffffffffffffffff8111156130fb57600080fd5b61310785828601612f33565b9150509250929050565b60006020828403121561312357600080fd5b815167ffffffffffffffff81111561313a57600080fd5b8201601f8101841361314b57600080fd5b8051613159612e0982612dd3565b81815285602083850101111561316e57600080fd5b613053826020830160208601612c42565b600181811c9082168061319357607f821691505b6020821081036131b357634e487b7160e01b600052602260045260246000fd5b50919050565b634e487b7160e01b600052601160045260246000fd5b818103818111156109a9576109a96131b9565b80820281158282048414176109a9576109a96131b9565b634e487b7160e01b600052601260045260246000fd5b60008261321e5761321e6131f9565b500490565b808201808211156109a9576109a96131b9565b6020808252818101527f4f776e61626c653a2063616c6c6572206973206e6f7420746865206f776e6572604082015260600190565b60006020828403121561327d57600080fd5b8151801515811461244057600080fd5b6020808252602e908201527f496e697469616c697a61626c653a20636f6e747261637420697320616c72656160408201526d191e481a5b9a5d1a585b1a5e995960921b606082015260800190565b601f82111561191757600081815260208120601f850160051c810160208610156133025750805b601f850160051c820191505b81811015611fa15782815560010161330e565b815167ffffffffffffffff81111561333b5761333b612d8c565b61334f81613349845461317f565b846132db565b602080601f831160018114613384576000841561336c5750858301515b600019600386901b1c1916600185901b178555611fa1565b600085815260208120601f198616915b828110156133b357888601518255948401946001909101908401613394565b50858210156133d15787850151600019600388901b60f8161c191681555b5050505050600190811b01905550565b6000602082840312156133f357600080fd5b5051919050565b805161340581612d77565b919050565b60006020828403121561341c57600080fd5b815161244081612d77565b8051600281900b811461340557600080fd5b60006020828403121561344b57600080fd5b61244082613427565b60008160020b8360020b8061346b5761346b6131f9565b627fffff19821460001982141615613485576134856131b9565b90059392505050565b60008260020b8260020b028060020b9150808214612a7457612a746131b9565b81516001600160a01b03168152610160810160208301516134da60208401826001600160a01b03169052565b5060408301516134f1604084018262ffffff169052565b506060830151613506606084018260020b9052565b50608083015161351b608084018260020b9052565b5060a083015160a083015260c083015160c083015260e083015160e083015261010080840151818401525061012080840151613561828501826001600160a01b03169052565b505061014092830151919092015290565b80516001600160801b038116811461340557600080fd5b6000806000806080858703121561359f57600080fd5b845193506135af60208601613572565b6040860151606090960151949790965092505050565b6000602082840312156135d757600080fd5b815160ff8116811461244057600080fd5b634e487b7160e01b600052603260045260246000fd5b600060018201613610576136106131b9565b5060010190565b60208082526021908201527f53686f756c64207374616b65206d6f64756c6520746f6b656e206f7220434f4d6040820152600560fc1b606082015260800190565b805162ffffff8116811461340557600080fd5b6000806000806000806000806000806000806101808d8f03121561368e57600080fd5b8c516bffffffffffffffffffffffff811681146136aa57600080fd5b9b506136b860208e016133fa565b9a506136c660408e016133fa565b99506136d460608e016133fa565b98506136e260808e01613658565b97506136f060a08e01613427565b96506136fe60c08e01613427565b955061370c60e08e01613572565b94506101008d015193506101208d0151925061372b6101408e01613572565b915061373a6101608e01613572565b90509295989b509295989b509295989b565b634e487b7160e01b600052603160045260246000fd5b60008251613774818460208701612c42565b919091019291505056fea2646970667358221220fd76bdb891c0b4a768f711ed9aaf7406de050b99069b08f58dd4d21d18e822f864736f6c63430008140033",
  "linkReferences": {},
  "deployedLinkReferences": {}
}