{
  "_format": "hh-sol-artifact-1",
  "contractName": "ModuleManager",
  "sourceName": "contracts/ModuleManager.sol",
  "abi": [
    {
      "inputs": [],
      "name": "InvalidInitialization",
      "type": "error"
    },
    {
      "inputs": [],
      "name": "NotInitializing",
      "type": "error"
    },
    {
      "anonymous": false,
      "inputs": [
        {
          "indexed": false,
          "internalType": "uint256",
          "name": "totalParticipations",
          "type": "uint256"
        }
      ],
      "name": "ContributionUpdated",
      "type": "event"
    },
    {
      "anonymous": false,
      "inputs": [
        {
          "indexed": false,
          "internalType": "uint64",
          "name": "version",
          "type": "uint64"
        }
      ],
      "name": "Initialized",
      "type": "event"
    },
    {
      "anonymous": false,
      "inputs": [
        {
          "indexed": true,
          "internalType": "address",
          "name": "token",
          "type": "address"
        },
        {
          "indexed": false,
          "internalType": "address",
          "name": "module",
          "type": "address"
        }
      ],
      "name": "ModuleForTokenRemoved",
      "type": "event"
    },
    {
      "anonymous": false,
      "inputs": [
        {
          "indexed": true,
          "internalType": "address",
          "name": "previousOwner",
          "type": "address"
        },
        {
          "indexed": true,
          "internalType": "address",
          "name": "newOwner",
          "type": "address"
        }
      ],
      "name": "OwnershipTransferred",
      "type": "event"
    },
    {
      "anonymous": false,
      "inputs": [
        {
          "indexed": false,
          "internalType": "address",
          "name": "sender",
          "type": "address"
        }
      ],
      "name": "sender",
      "type": "event"
    },
    {
      "inputs": [
        {
          "internalType": "address",
          "name": "factory",
          "type": "address"
        }
      ],
      "name": "addAdminModuleFactory",
      "outputs": [],
      "stateMutability": "nonpayable",
      "type": "function"
    },
    {
      "inputs": [
        {
          "internalType": "address[]",
          "name": "factories",
          "type": "address[]"
        }
      ],
      "name": "addModuleFactories",
      "outputs": [],
      "stateMutability": "nonpayable",
      "type": "function"
    },
    {
      "inputs": [
        {
          "internalType": "address",
          "name": "factory",
          "type": "address"
        }
      ],
      "name": "addModuleFactory",
      "outputs": [],
      "stateMutability": "nonpayable",
      "type": "function"
    },
    {
      "inputs": [
        {
          "internalType": "address",
          "name": "token",
          "type": "address"
        },
        {
          "internalType": "address",
          "name": "module",
          "type": "address"
        }
      ],
      "name": "emergencyRemoveModuleForToken",
      "outputs": [],
      "stateMutability": "nonpayable",
      "type": "function"
    },
    {
      "inputs": [
        {
          "internalType": "address",
          "name": "user",
          "type": "address"
        }
      ],
      "name": "getAllContributedModules",
      "outputs": [
        {
          "internalType": "address[]",
          "name": "",
          "type": "address[]"
        }
      ],
      "stateMutability": "view",
      "type": "function"
    },
    {
      "inputs": [],
      "name": "getAllModules",
      "outputs": [
        {
          "internalType": "address[]",
          "name": "",
          "type": "address[]"
        }
      ],
      "stateMutability": "view",
      "type": "function"
    },
    {
      "inputs": [
        {
          "internalType": "address",
          "name": "user",
          "type": "address"
        },
        {
          "internalType": "uint256",
          "name": "index",
          "type": "uint256"
        }
      ],
      "name": "getContributedModuleAtIndex",
      "outputs": [
        {
          "internalType": "address",
          "name": "",
          "type": "address"
        }
      ],
      "stateMutability": "view",
      "type": "function"
    },
    {
      "inputs": [
        {
          "internalType": "uint256",
          "name": "start",
          "type": "uint256"
        },
        {
          "internalType": "uint256",
          "name": "end",
          "type": "uint256"
        }
      ],
      "name": "getCumulativeModuleInfo",
      "outputs": [
        {
          "components": [
            {
              "internalType": "address",
              "name": "moduleAddress",
              "type": "address"
            },
            {
              "internalType": "address",
              "name": "token",
              "type": "address"
            },
            {
              "internalType": "string",
              "name": "tokenName",
              "type": "string"
            },
            {
              "internalType": "string",
              "name": "tokenSymbol",
              "type": "string"
            },
            {
              "internalType": "string",
              "name": "moduleDetails",
              "type": "string"
            },
            {
              "internalType": "address[]",
              "name": "holders",
              "type": "address[]"
            },
            {
              "internalType": "address[]",
              "name": "compHolders",
              "type": "address[]"
            },
            {
              "internalType": "uint256",
              "name": "emission",
              "type": "uint256"
            },
            {
              "internalType": "address",
              "name": "creator",
              "type": "address"
            },
            {
              "internalType": "address",
              "name": "v3Pair",
              "type": "address"
            },
            {
              "internalType": "uint256",
              "name": "tokenId",
              "type": "uint256"
            }
          ],
          "internalType": "struct ModuleManager.CumulativeLockInfo[]",
          "name": "",
          "type": "tuple[]"
        }
      ],
      "stateMutability": "view",
      "type": "function"
    },
    {
      "inputs": [
        {
          "internalType": "uint256",
          "name": "index",
          "type": "uint256"
        }
      ],
      "name": "getModuleAt",
      "outputs": [
        {
          "internalType": "address",
          "name": "",
          "type": "address"
        }
      ],
      "stateMutability": "view",
      "type": "function"
    },
    {
      "inputs": [
        {
          "internalType": "address",
          "name": "owner",
          "type": "address"
        }
      ],
      "name": "getModulesOf",
      "outputs": [
        {
          "internalType": "address[]",
          "name": "",
          "type": "address[]"
        }
      ],
      "stateMutability": "view",
      "type": "function"
    },
    {
      "inputs": [
        {
          "internalType": "address",
          "name": "user",
          "type": "address"
        }
      ],
      "name": "getTotalNumberOfContributedModules",
      "outputs": [
        {
          "internalType": "uint256",
          "name": "",
          "type": "uint256"
        }
      ],
      "stateMutability": "view",
      "type": "function"
    },
    {
      "inputs": [],
      "name": "getTotalNumberOfModules",
      "outputs": [
        {
          "internalType": "uint256",
          "name": "",
          "type": "uint256"
        }
      ],
      "stateMutability": "view",
      "type": "function"
    },
    {
      "inputs": [
        {
          "internalType": "address",
          "name": "userAddress",
          "type": "address"
        },
        {
          "internalType": "uint256",
          "name": "start",
          "type": "uint256"
        },
        {
          "internalType": "uint256",
          "name": "end",
          "type": "uint256"
        }
      ],
      "name": "getUserContributedModuleInfo",
      "outputs": [
        {
          "components": [
            {
              "internalType": "address",
              "name": "moduleAddress",
              "type": "address"
            },
            {
              "internalType": "address",
              "name": "token",
              "type": "address"
            },
            {
              "internalType": "string",
              "name": "tokenName",
              "type": "string"
            },
            {
              "internalType": "string",
              "name": "tokenSymbol",
              "type": "string"
            },
            {
              "internalType": "string",
              "name": "moduleDetails",
              "type": "string"
            },
            {
              "internalType": "address[]",
              "name": "holders",
              "type": "address[]"
            },
            {
              "internalType": "address[]",
              "name": "compHolders",
              "type": "address[]"
            },
            {
              "internalType": "uint256",
              "name": "emission",
              "type": "uint256"
            },
            {
              "internalType": "address",
              "name": "creator",
              "type": "address"
            },
            {
              "internalType": "address",
              "name": "v3Pair",
              "type": "address"
            },
            {
              "internalType": "uint256",
              "name": "tokenId",
              "type": "uint256"
            }
          ],
          "internalType": "struct ModuleManager.CumulativeLockInfo[]",
          "name": "",
          "type": "tuple[]"
        }
      ],
      "stateMutability": "view",
      "type": "function"
    },
    {
      "inputs": [],
      "name": "initialize",
      "outputs": [],
      "stateMutability": "nonpayable",
      "type": "function"
    },
    {
      "inputs": [
        {
          "internalType": "address",
          "name": "module",
          "type": "address"
        }
      ],
      "name": "isModuleGenerated",
      "outputs": [
        {
          "internalType": "bool",
          "name": "",
          "type": "bool"
        }
      ],
      "stateMutability": "view",
      "type": "function"
    },
    {
      "inputs": [
        {
          "internalType": "address",
          "name": "token",
          "type": "address"
        }
      ],
      "name": "moduleForToken",
      "outputs": [
        {
          "internalType": "address",
          "name": "",
          "type": "address"
        }
      ],
      "stateMutability": "view",
      "type": "function"
    },
    {
      "inputs": [],
      "name": "owner",
      "outputs": [
        {
          "internalType": "address",
          "name": "",
          "type": "address"
        }
      ],
      "stateMutability": "view",
      "type": "function"
    },
    {
      "inputs": [
        {
          "internalType": "address",
          "name": "user",
          "type": "address"
        },
        {
          "internalType": "address",
          "name": "module",
          "type": "address"
        }
      ],
      "name": "recordContribution",
      "outputs": [],
      "stateMutability": "nonpayable",
      "type": "function"
    },
    {
      "inputs": [
        {
          "internalType": "address",
          "name": "module",
          "type": "address"
        },
        {
          "internalType": "address",
          "name": "token",
          "type": "address"
        },
        {
          "internalType": "address",
          "name": "owner",
          "type": "address"
        }
      ],
      "name": "registerModule",
      "outputs": [],
      "stateMutability": "nonpayable",
      "type": "function"
    },
    {
      "inputs": [
        {
          "internalType": "uint256",
          "name": "index",
          "type": "uint256"
        }
      ],
      "name": "removeModuleAt",
      "outputs": [],
      "stateMutability": "nonpayable",
      "type": "function"
    },
    {
      "inputs": [
        {
          "internalType": "address",
          "name": "factory",
          "type": "address"
        }
      ],
      "name": "removeModuleFactory",
      "outputs": [],
      "stateMutability": "nonpayable",
      "type": "function"
    },
    {
      "inputs": [
        {
          "internalType": "address",
          "name": "token",
          "type": "address"
        },
        {
          "internalType": "address",
          "name": "module",
          "type": "address"
        }
      ],
      "name": "removeModuleForToken",
      "outputs": [],
      "stateMutability": "nonpayable",
      "type": "function"
    },
    {
      "inputs": [],
      "name": "renounceOwnership",
      "outputs": [],
      "stateMutability": "nonpayable",
      "type": "function"
    },
    {
      "inputs": [
        {
          "internalType": "address",
          "name": "",
          "type": "address"
        }
      ],
      "name": "totalLiquidityRaised",
      "outputs": [
        {
          "internalType": "uint256",
          "name": "",
          "type": "uint256"
        }
      ],
      "stateMutability": "view",
      "type": "function"
    },
    {
      "inputs": [],
      "name": "totalParticipants",
      "outputs": [
        {
          "internalType": "uint256",
          "name": "",
          "type": "uint256"
        }
      ],
      "stateMutability": "view",
      "type": "function"
    },
    {
      "inputs": [
        {
          "internalType": "address",
          "name": "",
          "type": "address"
        }
      ],
      "name": "totalValueLocked",
      "outputs": [
        {
          "internalType": "uint256",
          "name": "",
          "type": "uint256"
        }
      ],
      "stateMutability": "view",
      "type": "function"
    },
    {
      "inputs": [
        {
          "internalType": "address",
          "name": "payaddress",
          "type": "address"
        },
        {
          "internalType": "address",
          "name": "tokenAddress",
          "type": "address"
        },
        {
          "internalType": "uint256",
          "name": "tokens",
          "type": "uint256"
        }
      ],
      "name": "transferAnyERC20Token",
      "outputs": [],
      "stateMutability": "nonpayable",
      "type": "function"
    },
    {
      "inputs": [
        {
          "internalType": "address",
          "name": "newOwner",
          "type": "address"
        }
      ],
      "name": "transferOwnership",
      "outputs": [],
      "stateMutability": "nonpayable",
      "type": "function"
    },
    {
      "stateMutability": "payable",
      "type": "receive"
    }
  ],
  "bytecode": "0x608060405234801561001057600080fd5b5061222b806100206000396000f3fe6080604052600436106101bb5760003560e01c806385700213116100ec578063bd3a5be81161008a578063dfa6e9de11610064578063dfa6e9de14610524578063e9aae53614610539578063f2fde38b14610559578063f46169731461057957600080fd5b8063bd3a5be8146104cf578063c1398137146104ef578063d493b9ac1461050457600080fd5b80639173fe1b116100c65780639173fe1b14610459578063a26dbf2614610479578063a64c95e41461048f578063b11d530a146104af57600080fd5b806385700213146103fb5780638da5cb5b1461041b57806391634a4a1461043957600080fd5b80634aff33c8116101595780636b4b2a75116101335780636b4b2a7514610384578063715018a6146103b15780637455102f146103c65780638129fc1c146103e657600080fd5b80634aff33c8146103075780634de6a4281461033457806363ebe10d1461036457600080fd5b8063257658f811610195578063257658f81461024657806334e00f2b1461027f57806339dde374146102ba57806342835adc146102da57600080fd5b80630d0b6ff6146101c7578063176c2e991461020457806324f053df1461022657600080fd5b366101c257005b600080fd5b3480156101d357600080fd5b506101e76101e23660046119df565b610599565b6040516001600160a01b0390911681526020015b60405180910390f35b34801561021057600080fd5b5061022461021f366004611a10565b6105ac565b005b34801561023257600080fd5b50610224610241366004611a2d565b6105ee565b34801561025257600080fd5b506101e7610261366004611a10565b6001600160a01b039081166000908152606a60205260409020541690565b34801561028b57600080fd5b506102ac61029a366004611a10565b606c6020526000908152604090205481565b6040519081526020016101fb565b3480156102c657600080fd5b506102246102d5366004611a66565b61068f565b3480156102e657600080fd5b506102fa6102f5366004611ab1565b610737565b6040516101fb9190611b7a565b34801561031357600080fd5b506102ac610322366004611a10565b606b6020526000908152604090205481565b34801561034057600080fd5b5061035461034f366004611a10565b61098c565b60405190151581526020016101fb565b34801561037057600080fd5b5061022461037f366004611a10565b610999565b34801561039057600080fd5b506103a461039f366004611a10565b6109ce565b6040516101fb9190611cc1565b3480156103bd57600080fd5b50610224610aac565b3480156103d257600080fd5b506101e76103e1366004611d0e565b610b20565b3480156103f257600080fd5b50610224610b49565b34801561040757600080fd5b506102fa610416366004611d3a565b610c44565b34801561042757600080fd5b506032546001600160a01b03166101e7565b34801561044557600080fd5b50610224610454366004611a10565b610e4e565b34801561046557600080fd5b506102246104743660046119df565b610e96565b34801561048557600080fd5b506102ac606d5481565b34801561049b57600080fd5b506102ac6104aa366004611a10565b610edf565b3480156104bb57600080fd5b506102246104ca366004611a2d565b610f00565b3480156104db57600080fd5b506102246104ea366004611dc5565b610fa4565b3480156104fb57600080fd5b506103a461100e565b34801561051057600080fd5b5061022461051f366004611e63565b6110bd565b34801561053057600080fd5b506102ac611160565b34801561054557600080fd5b50610224610554366004611a2d565b611171565b34801561056557600080fd5b50610224610574366004611a10565b611252565b34801561058557600080fd5b506103a4610594366004611a10565b61133d565b60006105a6606683611413565b92915050565b6032546001600160a01b031633146105df5760405162461bcd60e51b81526004016105d690611ea4565b60405180910390fd5b6105ea60648261141f565b5050565b6032546001600160a01b031633146106185760405162461bcd60e51b81526004016105d690611ea4565b6001600160a01b0382166000908152606a6020526040902080546001600160a01b0319169055610649606682611434565b506040516001600160a01b0382811682528316907fc53dc86e44f7f8fc150ccda551e20e3b654cac5049ee23e2b5775793d3bbbe0a906020015b60405180910390a25050565b6040513381526000805160206121b68339815191529060200160405180910390a16106bb606433611449565b6106d75760405162461bcd60e51b81526004016105d690611ed9565b6106e260668461141f565b506001600160a01b0381166000908152606860205260409020610705908461141f565b50506001600160a01b039081166000908152606a602052604090208054919092166001600160a01b0319909116179055565b6001600160a01b038316600090815260696020526040902060609061075b9061146b565b8210610792576001600160a01b03841660009081526069602052604090206001906107859061146b565b61078f9190611f26565b91505b600061079e8484611f26565b6107a9906001611f39565b90506000816001600160401b038111156107c5576107c5611d5c565b6040519080825280602002602001820160405280156107fe57816020015b6107eb611961565b8152602001906001900390816107e35790505b506001600160a01b0387166000908152606960205260408120919250908790875b87811161097e57600080808080808080808061083b8c8c611413565b6001600160a01b0316630b40d5706040518163ffffffff1660e01b8152600401600060405180830381865afa158015610878573d6000803e3d6000fd5b505050506040513d6000823e601f3d908101601f191682016040526108a09190810190612036565b99509950995099509950995099509950995099506040518061016001604052806108d38d8f61141390919063ffffffff16565b6001600160a01b031681526020018b6001600160a01b031681526020018a8152602001898152602001888152602001878152602001868152602001858152602001846001600160a01b03168152602001836001600160a01b03168152602001828152508f8f815181106109485761094861214e565b60200260200101819052508d8061095e90612164565b9e505050505050505050505050808061097690612164565b91505061081f565b509298975050505050505050565b60006105a6606683611449565b6032546001600160a01b031633146109c35760405162461bcd60e51b81526004016105d690611ea4565b6105ea606482611434565b6001600160a01b0381166000908152606860205260408120606091906109f39061146b565b90506000816001600160401b03811115610a0f57610a0f611d5c565b604051908082528060200260200182016040528015610a38578160200160208202803683370190505b50905060005b82811015610aa4576001600160a01b0385166000908152606860205260409020610a689082611413565b828281518110610a7a57610a7a61214e565b6001600160a01b039092166020928302919091019091015280610a9c81612164565b915050610a3e565b509392505050565b6032546001600160a01b03163314610ad65760405162461bcd60e51b81526004016105d690611ea4565b6032546040516000916001600160a01b0316907f8be0079c531659141344cd1fd0a4f28419497f9722a3daafe3b4186f6b6457e0908390a3603280546001600160a01b0319169055565b6001600160a01b0382166000908152606960205260408120610b429083611413565b9392505050565b6000805160206121d68339815191528054600160401b810460ff1615906001600160401b0316600081158015610b7c5750825b90506000826001600160401b03166001148015610b985750303b155b905081158015610ba6575080155b15610bc45760405163f92ee8a960e01b815260040160405180910390fd5b845467ffffffffffffffff191660011785558315610bee57845460ff60401b1916600160401b1785555b610bf6611475565b8315610c3d57845460ff60401b19168555604051600181527fc7f505b2f371ae2175ee4913f4499e1f2633a7b5936321eed1cdaeb6115181d2906020015b60405180910390a15b5050505050565b6060610c50606661146b565b8210610c6f576001610c62606661146b565b610c6c9190611f26565b91505b6000610c7b8484611f26565b610c86906001611f39565b90506000816001600160401b03811115610ca257610ca2611d5c565b604051908082528060200260200182016040528015610cdb57816020015b610cc8611961565b815260200190600190039081610cc05790505b5090506000855b858111610e43576000808080808080808080610cff60668c611413565b6001600160a01b0316630b40d5706040518163ffffffff1660e01b8152600401600060405180830381865afa158015610d3c573d6000803e3d6000fd5b505050506040513d6000823e601f3d908101601f19168201604052610d649190810190612036565b9950995099509950995099509950995099509950604051806101600160405280610d988d606661141390919063ffffffff16565b6001600160a01b031681526020018b6001600160a01b031681526020018a8152602001898152602001888152602001878152602001868152602001858152602001846001600160a01b03168152602001836001600160a01b03168152602001828152508d8d81518110610e0d57610e0d61214e565b60200260200101819052508b80610e2390612164565b9c5050505050505050505050508080610e3b90612164565b915050610ce2565b509095945050505050565b6040513381526000805160206121b68339815191529060200160405180910390a1610e7a606433611449565b6105df5760405162461bcd60e51b81526004016105d690611ed9565b6032546001600160a01b03163314610ec05760405162461bcd60e51b81526004016105d690611ea4565b6000610ecd606683611413565b9050610eda606682611434565b505050565b6001600160a01b03811660009081526069602052604081206105a69061146b565b6040513381526000805160206121b68339815191529060200160405180910390a1610f2c606433611449565b610f485760405162461bcd60e51b81526004016105d690611ed9565b6001600160a01b038281166000818152606a602090815260409182902080546001600160a01b03191690559051928416835290917fc53dc86e44f7f8fc150ccda551e20e3b654cac5049ee23e2b5775793d3bbbe0a9101610683565b6032546001600160a01b03163314610fce5760405162461bcd60e51b81526004016105d690611ea4565b60005b81518110156105ea57610ffc828281518110610fef57610fef61214e565b6020026020010151610e4e565b8061100681612164565b915050610fd1565b6060600061101c606661146b565b90506000816001600160401b0381111561103857611038611d5c565b604051908082528060200260200182016040528015611061578160200160208202803683370190505b50905060005b828110156110b65761107a606682611413565b82828151811061108c5761108c61214e565b6001600160a01b0390921660209283029190910190910152806110ae81612164565b915050611067565b5092915050565b6032546001600160a01b031633146110e75760405162461bcd60e51b81526004016105d690611ea4565b60405163a9059cbb60e01b81526001600160a01b0384811660048301526024820183905283169063a9059cbb906044016020604051808303816000875af1158015611136573d6000803e3d6000fd5b505050506040513d601f19601f8201168201806040525081019061115a919061217d565b50505050565b600061116c606661146b565b905090565b6040513381526000805160206121b68339815191529060200160405180910390a161119d606433611449565b6111b95760405162461bcd60e51b81526004016105d690611ed9565b6001600160a01b03821660009081526069602052604090206111db9082611449565b6105ea57606d546111ed90600161152a565b606d556001600160a01b0382166000908152606960205260409020611212908261141f565b507f96d62f25518350ace6bbb1a985c6538769c45b92ee3bb0e861f4bd945145be05606d5460405161124691815260200190565b60405180910390a15050565b6032546001600160a01b0316331461127c5760405162461bcd60e51b81526004016105d690611ea4565b6001600160a01b0381166112e15760405162461bcd60e51b815260206004820152602660248201527f4f776e61626c653a206e6577206f776e657220697320746865207a65726f206160448201526564647265737360d01b60648201526084016105d6565b6032546040516001600160a01b038084169216907f8be0079c531659141344cd1fd0a4f28419497f9722a3daafe3b4186f6b6457e090600090a3603280546001600160a01b0319166001600160a01b0392909216919091179055565b6001600160a01b0381166000908152606960205260408120606091906113629061146b565b90506000816001600160401b0381111561137e5761137e611d5c565b6040519080825280602002602001820160405280156113a7578160200160208202803683370190505b50905060005b82811015610aa4576001600160a01b03851660009081526069602052604090206113d79082611413565b8282815181106113e9576113e961214e565b6001600160a01b03909216602092830291909101909101528061140b81612164565b9150506113ad565b6000610b428383611589565b6000610b42836001600160a01b03841661160f565b6000610b42836001600160a01b03841661165e565b6001600160a01b03811660009081526001830160205260408120541515610b42565b60006105a6825490565b6000805160206121d68339815191528054600160401b810460ff1615906001600160401b03166000811580156114a85750825b90506000826001600160401b031660011480156114c45750303b155b9050811580156114d2575080155b156114f05760405163f92ee8a960e01b815260040160405180910390fd5b845467ffffffffffffffff19166001178555831561151a57845460ff60401b1916600160401b1785555b611522611751565b610bf6611837565b6000806115378385611f39565b905083811015610b425760405162461bcd60e51b815260206004820152601b60248201527f536166654d6174683a206164646974696f6e206f766572666c6f77000000000060448201526064016105d6565b815460009082106115e75760405162461bcd60e51b815260206004820152602260248201527f456e756d657261626c655365743a20696e646578206f7574206f6620626f756e604482015261647360f01b60648201526084016105d6565b8260000182815481106115fc576115fc61214e565b9060005260206000200154905092915050565b6000818152600183016020526040812054611656575081546001818101845560008481526020808220909301849055845484825282860190935260409020919091556105a6565b5060006105a6565b60008181526001830160205260408120548015611747576000611682600183611f26565b855490915060009061169690600190611f26565b905060008660000182815481106116af576116af61214e565b90600052602060002001549050808760000184815481106116d2576116d261214e565b6000918252602090912001556116e9836001611f39565b6000828152600189016020526040902055865487908061170b5761170b61219f565b600190038181906000526020600020016000905590558660010160008781526020019081526020016000206000905560019450505050506105a6565b60009150506105a6565b6000805160206121d68339815191528054600160401b810460ff1615906001600160401b03166000811580156117845750825b90506000826001600160401b031660011480156117a05750303b155b9050811580156117ae575080155b156117cc5760405163f92ee8a960e01b815260040160405180910390fd5b845467ffffffffffffffff191660011785558315610bf657845460ff60401b1916600160401b1785558315610c3d57845460ff60401b19168555604051600181527fc7f505b2f371ae2175ee4913f4499e1f2633a7b5936321eed1cdaeb6115181d290602001610c34565b6000805160206121d68339815191528054600160401b810460ff1615906001600160401b031660008115801561186a5750825b90506000826001600160401b031660011480156118865750303b155b905081158015611894575080155b156118b25760405163f92ee8a960e01b815260040160405180910390fd5b845467ffffffffffffffff1916600117855583156118dc57845460ff60401b1916600160401b1785555b603280546001600160a01b0319163390811790915560405181906000907f8be0079c531659141344cd1fd0a4f28419497f9722a3daafe3b4186f6b6457e0908290a3508315610c3d57845460ff60401b19168555604051600181527fc7f505b2f371ae2175ee4913f4499e1f2633a7b5936321eed1cdaeb6115181d290602001610c34565b60405180610160016040528060006001600160a01b0316815260200160006001600160a01b0316815260200160608152602001606081526020016060815260200160608152602001606081526020016000815260200160006001600160a01b0316815260200160006001600160a01b03168152602001600081525090565b6000602082840312156119f157600080fd5b5035919050565b6001600160a01b0381168114611a0d57600080fd5b50565b600060208284031215611a2257600080fd5b8135610b42816119f8565b60008060408385031215611a4057600080fd5b8235611a4b816119f8565b91506020830135611a5b816119f8565b809150509250929050565b600080600060608486031215611a7b57600080fd5b8335611a86816119f8565b92506020840135611a96816119f8565b91506040840135611aa6816119f8565b809150509250925092565b600080600060608486031215611ac657600080fd5b8335611ad1816119f8565b95602085013595506040909401359392505050565b60005b83811015611b01578181015183820152602001611ae9565b50506000910152565b60008151808452611b22816020860160208601611ae6565b601f01601f19169290920160200192915050565b600081518084526020808501945080840160005b83811015611b6f5781516001600160a01b031687529582019590820190600101611b4a565b509495945050505050565b60006020808301818452808551808352604092508286019150828160051b87010184880160005b83811015611cb357888303603f19018552815180516001600160a01b03168452610160818901516001600160a01b038116868b015250878201518189870152611bec82870182611b0a565b91505060608083015186830382880152611c068382611b0a565b9250505060808083015186830382880152611c218382611b0a565b9250505060a08083015186830382880152611c3c8382611b36565b9250505060c08083015186830382880152611c578382611b36565b9250505060e080830151818701525061010080830151611c81828801826001600160a01b03169052565b5050610120828101516001600160a01b0316908601526101409182015191909401529386019390860190600101611ba1565b509098975050505050505050565b6020808252825182820181905260009190848201906040850190845b81811015611d025783516001600160a01b031683529284019291840191600101611cdd565b50909695505050505050565b60008060408385031215611d2157600080fd5b8235611d2c816119f8565b946020939093013593505050565b60008060408385031215611d4d57600080fd5b50508035926020909101359150565b634e487b7160e01b600052604160045260246000fd5b604051601f8201601f191681016001600160401b0381118282101715611d9a57611d9a611d5c565b604052919050565b60006001600160401b03821115611dbb57611dbb611d5c565b5060051b60200190565b60006020808385031215611dd857600080fd5b82356001600160401b03811115611dee57600080fd5b8301601f81018513611dff57600080fd5b8035611e12611e0d82611da2565b611d72565b81815260059190911b82018301908381019087831115611e3157600080fd5b928401925b82841015611e58578335611e49816119f8565b82529284019290840190611e36565b979650505050505050565b600080600060608486031215611e7857600080fd5b8335611e83816119f8565b92506020840135611e93816119f8565b929592945050506040919091013590565b6020808252818101527f4f776e61626c653a2063616c6c6572206973206e6f7420746865206f776e6572604082015260600190565b60208082526019908201527f4e6f7420612077686974656c697374656420666163746f727900000000000000604082015260600190565b634e487b7160e01b600052601160045260246000fd5b818103818111156105a6576105a6611f10565b808201808211156105a6576105a6611f10565b8051611f57816119f8565b919050565b600082601f830112611f6d57600080fd5b81516001600160401b03811115611f8657611f86611d5c565b611f99601f8201601f1916602001611d72565b818152846020838601011115611fae57600080fd5b611fbf826020830160208701611ae6565b949350505050565b600082601f830112611fd857600080fd5b81516020611fe8611e0d83611da2565b82815260059290921b8401810191818101908684111561200757600080fd5b8286015b8481101561202b57805161201e816119f8565b835291830191830161200b565b509695505050505050565b6000806000806000806000806000806101408b8d03121561205657600080fd5b61205f8b611f4c565b995060208b01516001600160401b038082111561207b57600080fd5b6120878e838f01611f5c565b9a5060408d015191508082111561209d57600080fd5b6120a98e838f01611f5c565b995060608d01519150808211156120bf57600080fd5b6120cb8e838f01611f5c565b985060808d01519150808211156120e157600080fd5b6120ed8e838f01611fc7565b975060a08d015191508082111561210357600080fd5b506121108d828e01611fc7565b95505060c08b0151935061212660e08c01611f4c565b92506121356101008c01611f4c565b91506101208b015190509295989b9194979a5092959850565b634e487b7160e01b600052603260045260246000fd5b60006001820161217657612176611f10565b5060010190565b60006020828403121561218f57600080fd5b81518015158114610b4257600080fd5b634e487b7160e01b600052603160045260246000fdfeb212c8921883707806054134691af4baf7a0b0821e5e930788fe27f6bdfb2068f0c57e16840df040f15088dc2f81fe391c3923bec73e23a9662efc9c229c6a00a26469706673582212208e993f0a1a5b8f46d6592c905a1eca3d389ce0f4fb65ce0aed0c0c7092a58cd864736f6c63430008140033",
  "linkReferences": {},
  "deployedLinkReferences": {}
}