{
  "_format": "hh-sol-artifact-1",
  "contractName": "ModuleFactory",
  "sourceName": "contracts/ModuleFactory.sol",
  "abi": [
    {
      "inputs": [],
      "name": "InvalidInitialization",
      "type": "error"
    },
    {
      "inputs": [],
      "name": "NotInitializing",
      "type": "error"
    },
    {
      "anonymous": false,
      "inputs": [
        {
          "indexed": false,
          "internalType": "uint64",
          "name": "version",
          "type": "uint64"
        }
      ],
      "name": "Initialized",
      "type": "event"
    },
    {
      "anonymous": false,
      "inputs": [
        {
          "indexed": true,
          "internalType": "address",
          "name": "previousOwner",
          "type": "address"
        },
        {
          "indexed": true,
          "internalType": "address",
          "name": "newOwner",
          "type": "address"
        }
      ],
      "name": "OwnershipTransferred",
      "type": "event"
    },
    {
      "anonymous": false,
      "inputs": [
        {
          "indexed": true,
          "internalType": "address",
          "name": "creator",
          "type": "address"
        },
        {
          "indexed": true,
          "internalType": "address",
          "name": "module",
          "type": "address"
        },
        {
          "indexed": true,
          "internalType": "address",
          "name": "token",
          "type": "address"
        }
      ],
      "name": "moduleCreated",
      "type": "event"
    },
    {
      "inputs": [],
      "name": "compToken",
      "outputs": [
        {
          "internalType": "address",
          "name": "",
          "type": "address"
        }
      ],
      "stateMutability": "view",
      "type": "function"
    },
    {
      "inputs": [
        {
          "internalType": "address",
          "name": "_tokenAddr",
          "type": "address"
        },
        {
          "internalType": "uint256",
          "name": "_emission",
          "type": "uint256"
        },
        {
          "internalType": "uint256",
          "name": "compTokenAmt",
          "type": "uint256"
        },
        {
          "internalType": "string",
          "name": "_moduleDetails",
          "type": "string"
        },
        {
          "internalType": "string[2]",
          "name": "tokenInfo",
          "type": "string[2]"
        }
      ],
      "name": "createComPump",
      "outputs": [],
      "stateMutability": "payable",
      "type": "function"
    },
    {
      "inputs": [
        {
          "internalType": "address",
          "name": "_v3Router",
          "type": "address"
        },
        {
          "internalType": "address",
          "name": "_compToken",
          "type": "address"
        },
        {
          "internalType": "address",
          "name": "_moduleManager",
          "type": "address"
        },
        {
          "internalType": "address",
          "name": "_memeTemplate",
          "type": "address"
        },
        {
          "internalType": "address",
          "name": "_moduleTemplate",
          "type": "address"
        }
      ],
      "name": "initialize",
      "outputs": [],
      "stateMutability": "nonpayable",
      "type": "function"
    },
    {
      "inputs": [],
      "name": "memeTemplate",
      "outputs": [
        {
          "internalType": "address",
          "name": "",
          "type": "address"
        }
      ],
      "stateMutability": "view",
      "type": "function"
    },
    {
      "inputs": [],
      "name": "moduleManager",
      "outputs": [
        {
          "internalType": "address",
          "name": "",
          "type": "address"
        }
      ],
      "stateMutability": "view",
      "type": "function"
    },
    {
      "inputs": [],
      "name": "moduleTemplate",
      "outputs": [
        {
          "internalType": "address",
          "name": "",
          "type": "address"
        }
      ],
      "stateMutability": "view",
      "type": "function"
    },
    {
      "inputs": [],
      "name": "owner",
      "outputs": [
        {
          "internalType": "address",
          "name": "",
          "type": "address"
        }
      ],
      "stateMutability": "view",
      "type": "function"
    },
    {
      "inputs": [],
      "name": "renounceOwnership",
      "outputs": [],
      "stateMutability": "nonpayable",
      "type": "function"
    },
    {
      "inputs": [
        {
          "internalType": "address",
          "name": "_address",
          "type": "address"
        }
      ],
      "name": "setCompToken",
      "outputs": [],
      "stateMutability": "nonpayable",
      "type": "function"
    },
    {
      "inputs": [
        {
          "internalType": "address",
          "name": "_memeTemplate",
          "type": "address"
        }
      ],
      "name": "setMemeTemplate",
      "outputs": [],
      "stateMutability": "nonpayable",
      "type": "function"
    },
    {
      "inputs": [
        {
          "internalType": "address",
          "name": "_address",
          "type": "address"
        }
      ],
      "name": "setModuleManager",
      "outputs": [],
      "stateMutability": "nonpayable",
      "type": "function"
    },
    {
      "inputs": [
        {
          "internalType": "address",
          "name": "_moduleTemplate",
          "type": "address"
        }
      ],
      "name": "setModuleTemplate",
      "outputs": [],
      "stateMutability": "nonpayable",
      "type": "function"
    },
    {
      "inputs": [
        {
          "internalType": "address",
          "name": "_address",
          "type": "address"
        }
      ],
      "name": "setV3Router",
      "outputs": [],
      "stateMutability": "nonpayable",
      "type": "function"
    },
    {
      "inputs": [
        {
          "internalType": "address",
          "name": "newOwner",
          "type": "address"
        }
      ],
      "name": "transferOwnership",
      "outputs": [],
      "stateMutability": "nonpayable",
      "type": "function"
    },
    {
      "inputs": [],
      "name": "v3Router",
      "outputs": [
        {
          "internalType": "address",
          "name": "",
          "type": "address"
        }
      ],
      "stateMutability": "view",
      "type": "function"
    },
    {
      "stateMutability": "payable",
      "type": "receive"
    }
  ],
  "bytecode": "0x608060405234801561001057600080fd5b506113fc806100206000396000f3fe6080604052600436106100ec5760003560e01c80636605dfa71161008a578063935a4da211610059578063935a4da21461025c578063b40b02431461027c578063bff6784e1461029c578063f2fde38b146102bc57600080fd5b80636605dfa7146101e9578063715018a61461020957806372b395321461021e5780638da5cb5b1461023e57600080fd5b80631459457a116100c65780631459457a1461016957806316bb9ead146101895780633e9c1073146101a95780635c9c030a146101c957600080fd5b806304450983146100f8578063063b18cb1461011a5780630dc913061461012d57600080fd5b366100f357005b600080fd5b34801561010457600080fd5b50610118610113366004610fb6565b6102dc565b005b6101186101283660046110a4565b610357565b34801561013957600080fd5b5060655461014d906001600160a01b031681565b6040516001600160a01b03909116815260200160405180910390f35b34801561017557600080fd5b50610118610184366004611189565b610657565b34801561019557600080fd5b506101186101a4366004610fb6565b61079c565b3480156101b557600080fd5b506101186101c4366004610fb6565b61083e565b3480156101d557600080fd5b506101186101e4366004610fb6565b6108b0565b3480156101f557600080fd5b5060665461014d906001600160a01b031681565b34801561021557600080fd5b50610118610922565b34801561022a57600080fd5b5060645461014d906001600160a01b031681565b34801561024a57600080fd5b506032546001600160a01b031661014d565b34801561026857600080fd5b50610118610277366004610fb6565b610996565b34801561028857600080fd5b5060685461014d906001600160a01b031681565b3480156102a857600080fd5b5060675461014d906001600160a01b031681565b3480156102c857600080fd5b506101186102d7366004610fb6565b610a38565b6032546001600160a01b0316331461030f5760405162461bcd60e51b8152600401610306906111ee565b60405180910390fd5b6001600160a01b0381166103355760405162461bcd60e51b815260040161030690611223565b606680546001600160a01b0319166001600160a01b0392909216919091179055565b6066546040516323b872dd60e01b8152336004820181905230602483015260448201869052916001600160a01b0316906323b872dd906064016020604051808303816000875af11580156103af573d6000803e3d6000fd5b505050506040513d601f19601f820116820180604052508101906103d39190611252565b506067546001600160a01b031661042c5760405162461bcd60e51b815260206004820152601f60248201527f4d656d6520546f6b656e2061646472657373206973206e6f74207365742121006044820152606401610306565b60008342604051602001610441929190611298565b60408051601f198184030181529190528051602090910120606854909150600090610475906001600160a01b031683610b23565b845160405191925061048b914290602001611298565b60408051601f1981840301815291905280516020909101206067549092506104bc906001600160a01b031683610b23565b8451602086015160405163100b506960e11b8152929a506001600160a01b038b1692632016a0d2926104f6928692899291906004016112e6565b600060405180830381600087803b15801561051057600080fd5b505af1158015610524573d6000803e3d6000fd5b505050506105368189858a8a8a610bc9565b6064546040516348b1a52560e11b81526001600160a01b038381166004830152909116906391634a4a90602401600060405180830381600087803b15801561057d57600080fd5b505af1158015610591573d6000803e3d6000fd5b505060648054604051630e7778dd60e21b81526001600160a01b0386811660048301528d81166024830152888116604483015290911693506339dde374925001600060405180830381600087803b1580156105eb57600080fd5b505af11580156105ff573d6000803e3d6000fd5b50505050876001600160a01b0316816001600160a01b0316846001600160a01b03167f37c0612141401757a57d473951fcbdceb3989dc18fa591cdb1a7c0dc717d3c9760405160405180910390a45050505050505050565b6000805160206113a78339815191528054600160401b810460ff16159067ffffffffffffffff1660008115801561068b5750825b905060008267ffffffffffffffff1660011480156106a85750303b155b9050811580156106b6575080155b156106d45760405163f92ee8a960e01b815260040160405180910390fd5b845467ffffffffffffffff1916600117855583156106fe57845460ff60401b1916600160401b1785555b610706610cb7565b606580546001600160a01b03199081166001600160a01b038d8116919091179092556066805482168c84161790556064805482168b84161790556067805482168a841617905560688054909116918816919091179055831561079057845460ff60401b19168555604051600181526000805160206113878339815191529060200160405180910390a15b50505050505050505050565b6032546001600160a01b031633146107c65760405162461bcd60e51b8152600401610306906111ee565b6001600160a01b03811661081c5760405162461bcd60e51b815260206004820152601b60248201527f4d6f64756c652061646472657373206d757374206265207365742100000000006044820152606401610306565b606880546001600160a01b0319166001600160a01b0392909216919091179055565b6032546001600160a01b031633146108685760405162461bcd60e51b8152600401610306906111ee565b6001600160a01b03811661088e5760405162461bcd60e51b815260040161030690611223565b606480546001600160a01b0319166001600160a01b0392909216919091179055565b6032546001600160a01b031633146108da5760405162461bcd60e51b8152600401610306906111ee565b6001600160a01b0381166109005760405162461bcd60e51b815260040161030690611223565b606580546001600160a01b0319166001600160a01b0392909216919091179055565b6032546001600160a01b0316331461094c5760405162461bcd60e51b8152600401610306906111ee565b6032546040516000916001600160a01b0316907f8be0079c531659141344cd1fd0a4f28419497f9722a3daafe3b4186f6b6457e0908390a3603280546001600160a01b0319169055565b6032546001600160a01b031633146109c05760405162461bcd60e51b8152600401610306906111ee565b6001600160a01b038116610a165760405162461bcd60e51b815260206004820152601b60248201527f546f6b656e2061646472657373206d75737420626520736574212100000000006044820152606401610306565b606780546001600160a01b0319166001600160a01b0392909216919091179055565b6032546001600160a01b03163314610a625760405162461bcd60e51b8152600401610306906111ee565b6001600160a01b038116610ac75760405162461bcd60e51b815260206004820152602660248201527f4f776e61626c653a206e6577206f776e657220697320746865207a65726f206160448201526564647265737360d01b6064820152608401610306565b6032546040516001600160a01b038084169216907f8be0079c531659141344cd1fd0a4f28419497f9722a3daafe3b4186f6b6457e090600090a3603280546001600160a01b0319166001600160a01b0392909216919091179055565b6000604051733d602d80600a3d3981f3363d3d373d3d3d363d7360601b81528360601b60148201526e5af43d82803e903d91602b57fd5bf360881b6028820152826037826000f59150506001600160a01b038116610bc35760405162461bcd60e51b815260206004820152601760248201527f455243313136373a2063726561746532206661696c65640000000000000000006044820152606401610306565b92915050565b60665460405163a9059cbb60e01b81526001600160a01b038881166004830152602482018590529091169063a9059cbb906044016020604051808303816000875af1158015610c1c573d6000803e3d6000fd5b505050506040513d601f19601f82011682018060405250810190610c409190611252565b50606554606654606454604051630c3579cf60e21b81526001600160a01b03808b16946330d5e73c94610c8994918316938c93918216928c928c928b929091169060040161132f565b600060405180830381600087803b158015610ca357600080fd5b505af1158015610790573d6000803e3d6000fd5b6000805160206113a78339815191528054600160401b810460ff16159067ffffffffffffffff16600081158015610ceb5750825b905060008267ffffffffffffffff166001148015610d085750303b155b905081158015610d16575080155b15610d345760405163f92ee8a960e01b815260040160405180910390fd5b845467ffffffffffffffff191660011785558315610d5e57845460ff60401b1916600160401b1785555b610d66610daa565b610d6e610e80565b8315610da357845460ff60401b1916855560405160018152600080516020611387833981519152906020015b60405180910390a15b5050505050565b6000805160206113a78339815191528054600160401b810460ff16159067ffffffffffffffff16600081158015610dde5750825b905060008267ffffffffffffffff166001148015610dfb5750303b155b905081158015610e09575080155b15610e275760405163f92ee8a960e01b815260040160405180910390fd5b845467ffffffffffffffff191660011785558315610d6e57845460ff60401b1916600160401b1785558315610da357845460ff60401b191685556040516001815260008051602061138783398151915290602001610d9a565b6000805160206113a78339815191528054600160401b810460ff16159067ffffffffffffffff16600081158015610eb45750825b905060008267ffffffffffffffff166001148015610ed15750303b155b905081158015610edf575080155b15610efd5760405163f92ee8a960e01b815260040160405180910390fd5b845467ffffffffffffffff191660011785558315610f2757845460ff60401b1916600160401b1785555b603280546001600160a01b0319163390811790915560405181906000907f8be0079c531659141344cd1fd0a4f28419497f9722a3daafe3b4186f6b6457e0908290a3508315610da357845460ff60401b191685556040516001815260008051602061138783398151915290602001610d9a565b80356001600160a01b0381168114610fb157600080fd5b919050565b600060208284031215610fc857600080fd5b610fd182610f9a565b9392505050565b634e487b7160e01b600052604160045260246000fd5b6040805190810167ffffffffffffffff8111828210171561101157611011610fd8565b60405290565b600082601f83011261102857600080fd5b813567ffffffffffffffff8082111561104357611043610fd8565b604051601f8301601f19908116603f0116810190828211818310171561106b5761106b610fd8565b8160405283815286602085880101111561108457600080fd5b836020870160208301376000602085830101528094505050505092915050565b600080600080600060a086880312156110bc57600080fd5b6110c586610f9a565b9450602080870135945060408701359350606087013567ffffffffffffffff808211156110f157600080fd5b6110fd8a838b01611017565b9450608089013591508082111561111357600080fd5b818901915089601f83011261112757600080fd5b61112f610fee565b80604084018c81111561114157600080fd5b845b818110156111755780358581111561115b5760008081fd5b6111678f828901611017565b855250928601928601611143565b505080955050505050509295509295909350565b600080600080600060a086880312156111a157600080fd5b6111aa86610f9a565b94506111b860208701610f9a565b93506111c660408701610f9a565b92506111d460608701610f9a565b91506111e260808701610f9a565b90509295509295909350565b6020808252818101527f4f776e61626c653a2063616c6c6572206973206e6f7420746865206f776e6572604082015260600190565b602080825260159082015274125b9d985b1a59081059191c995cdcc8199bdd5b99605a1b604082015260600190565b60006020828403121561126457600080fd5b81518015158114610fd157600080fd5b60005b8381101561128f578181015183820152602001611277565b50506000910152565b600083516112aa818460208801611274565b9190910191825250602001919050565b600081518084526112d2816020860160208601611274565b601f01601f19169290920160200192915050565b6001600160a01b03858116825284166020820152608060408201819052600090611312908301856112ba565b828103606084015261132481856112ba565b979650505050505050565b600060018060a01b03808a16835280891660208401528088166040840152808716606084015285608084015260e060a084015261136f60e08401866112ba565b915080841660c0840152509897505050505050505056fec7f505b2f371ae2175ee4913f4499e1f2633a7b5936321eed1cdaeb6115181d2f0c57e16840df040f15088dc2f81fe391c3923bec73e23a9662efc9c229c6a00a2646970667358221220fe4559e0bde37f7681146eed782fdd49a0bf0cb5dd501840a6eb05a1df73c34464736f6c63430008140033",
  "linkReferences": {},
  "deployedLinkReferences": {}
}