{
  "_format": "hh-sol-artifact-1",
  "contractName": "CompStake",
  "sourceName": "contracts/CompStake.sol",
  "abi": [
    {
      "inputs": [],
      "name": "InvalidInitialization",
      "type": "error"
    },
    {
      "inputs": [],
      "name": "NotInitializing",
      "type": "error"
    },
    {
      "anonymous": false,
      "inputs": [
        {
          "indexed": false,
          "internalType": "uint64",
          "name": "version",
          "type": "uint64"
        }
      ],
      "name": "Initialized",
      "type": "event"
    },
    {
      "anonymous": false,
      "inputs": [
        {
          "indexed": true,
          "internalType": "address",
          "name": "previousOwner",
          "type": "address"
        },
        {
          "indexed": true,
          "internalType": "address",
          "name": "newOwner",
          "type": "address"
        }
      ],
      "name": "OwnershipTransferred",
      "type": "event"
    },
    {
      "anonymous": false,
      "inputs": [
        {
          "indexed": true,
          "internalType": "address",
          "name": "user",
          "type": "address"
        },
        {
          "indexed": false,
          "internalType": "uint256",
          "name": "amount",
          "type": "uint256"
        },
        {
          "indexed": false,
          "internalType": "uint256",
          "name": "timestamp",
          "type": "uint256"
        }
      ],
      "name": "Staked",
      "type": "event"
    },
    {
      "anonymous": false,
      "inputs": [
        {
          "indexed": true,
          "internalType": "address",
          "name": "user",
          "type": "address"
        },
        {
          "indexed": false,
          "internalType": "uint256",
          "name": "amount",
          "type": "uint256"
        },
        {
          "indexed": false,
          "internalType": "uint256",
          "name": "timestamp",
          "type": "uint256"
        }
      ],
      "name": "UnStaked",
      "type": "event"
    },
    {
      "inputs": [],
      "name": "claimReward",
      "outputs": [],
      "stateMutability": "nonpayable",
      "type": "function"
    },
    {
      "inputs": [],
      "name": "distributeRewards",
      "outputs": [],
      "stateMutability": "nonpayable",
      "type": "function"
    },
    {
      "inputs": [
        {
          "internalType": "address",
          "name": "account",
          "type": "address"
        }
      ],
      "name": "earned",
      "outputs": [
        {
          "internalType": "uint256",
          "name": "",
          "type": "uint256"
        }
      ],
      "stateMutability": "view",
      "type": "function"
    },
    {
      "inputs": [
        {
          "internalType": "address",
          "name": "payaddress",
          "type": "address"
        },
        {
          "internalType": "address",
          "name": "tokenAddress",
          "type": "address"
        },
        {
          "internalType": "uint256",
          "name": "tokens",
          "type": "uint256"
        }
      ],
      "name": "emergencyWithdrawToken",
      "outputs": [],
      "stateMutability": "nonpayable",
      "type": "function"
    },
    {
      "inputs": [],
      "name": "emission",
      "outputs": [
        {
          "internalType": "uint256",
          "name": "",
          "type": "uint256"
        }
      ],
      "stateMutability": "view",
      "type": "function"
    },
    {
      "inputs": [],
      "name": "getDecimal",
      "outputs": [
        {
          "internalType": "uint8",
          "name": "",
          "type": "uint8"
        }
      ],
      "stateMutability": "view",
      "type": "function"
    },
    {
      "inputs": [],
      "name": "getHolders",
      "outputs": [
        {
          "internalType": "uint256",
          "name": "",
          "type": "uint256"
        },
        {
          "internalType": "address[]",
          "name": "",
          "type": "address[]"
        }
      ],
      "stateMutability": "view",
      "type": "function"
    },
    {
      "inputs": [
        {
          "internalType": "address",
          "name": "user",
          "type": "address"
        }
      ],
      "name": "getUserStaked",
      "outputs": [
        {
          "internalType": "uint256",
          "name": "",
          "type": "uint256"
        }
      ],
      "stateMutability": "view",
      "type": "function"
    },
    {
      "inputs": [
        {
          "internalType": "address",
          "name": "_tokenAddr",
          "type": "address"
        },
        {
          "internalType": "address",
          "name": "_creator",
          "type": "address"
        },
        {
          "internalType": "uint256",
          "name": "_emission",
          "type": "uint256"
        }
      ],
      "name": "initialize",
      "outputs": [],
      "stateMutability": "nonpayable",
      "type": "function"
    },
    {
      "inputs": [
        {
          "internalType": "address",
          "name": "",
          "type": "address"
        }
      ],
      "name": "lastUpdateTimeOf",
      "outputs": [
        {
          "internalType": "uint256",
          "name": "",
          "type": "uint256"
        }
      ],
      "stateMutability": "view",
      "type": "function"
    },
    {
      "inputs": [],
      "name": "owner",
      "outputs": [
        {
          "internalType": "address",
          "name": "",
          "type": "address"
        }
      ],
      "stateMutability": "view",
      "type": "function"
    },
    {
      "inputs": [],
      "name": "renounceOwnership",
      "outputs": [],
      "stateMutability": "nonpayable",
      "type": "function"
    },
    {
      "inputs": [
        {
          "internalType": "address",
          "name": "",
          "type": "address"
        }
      ],
      "name": "rewards",
      "outputs": [
        {
          "internalType": "uint256",
          "name": "",
          "type": "uint256"
        }
      ],
      "stateMutability": "view",
      "type": "function"
    },
    {
      "inputs": [
        {
          "internalType": "uint256",
          "name": "_amount",
          "type": "uint256"
        }
      ],
      "name": "stake",
      "outputs": [],
      "stateMutability": "nonpayable",
      "type": "function"
    },
    {
      "inputs": [
        {
          "internalType": "address",
          "name": "",
          "type": "address"
        }
      ],
      "name": "stakesOf",
      "outputs": [
        {
          "internalType": "uint256",
          "name": "",
          "type": "uint256"
        }
      ],
      "stateMutability": "view",
      "type": "function"
    },
    {
      "inputs": [],
      "name": "token",
      "outputs": [
        {
          "internalType": "address",
          "name": "",
          "type": "address"
        }
      ],
      "stateMutability": "view",
      "type": "function"
    },
    {
      "inputs": [],
      "name": "totalStaked",
      "outputs": [
        {
          "internalType": "uint256",
          "name": "",
          "type": "uint256"
        }
      ],
      "stateMutability": "view",
      "type": "function"
    },
    {
      "inputs": [
        {
          "internalType": "address",
          "name": "newOwner",
          "type": "address"
        }
      ],
      "name": "transferOwnership",
      "outputs": [],
      "stateMutability": "nonpayable",
      "type": "function"
    },
    {
      "inputs": [
        {
          "internalType": "uint256",
          "name": "_amount",
          "type": "uint256"
        }
      ],
      "name": "unStake",
      "outputs": [],
      "stateMutability": "nonpayable",
      "type": "function"
    },
    {
      "inputs": [
        {
          "internalType": "uint256",
          "name": "newEmission",
          "type": "uint256"
        }
      ],
      "name": "updateEmission",
      "outputs": [],
      "stateMutability": "nonpayable",
      "type": "function"
    },
    {
      "stateMutability": "payable",
      "type": "receive"
    }
  ],
  "bytecode": "0x608060405234801561001057600080fd5b50611b01806100206000396000f3fe6080604052600436106101225760003560e01c806378e72239116100a0578063a694fc3a11610064578063a694fc3a1461033c578063b88a802f1461035c578063dac3fc3f14610371578063f2fde38b146103a7578063fc0c546a146103c757600080fd5b806378e72239146102915780637f506f59146102b1578063817b1cd2146102de578063827c049e146102f45780638da5cb5b1461030a57600080fd5b806334ce10c4116100e757806334ce10c4146101fd5780635d3eea91146102245780635fe8e7cc146102445780636f4a2cd014610267578063715018a61461027c57600080fd5b80628cc2621461012e5780630700037d146101615780631794bb3c1461018e578063277327a5146101b057806333b69c4c146101d057600080fd5b3661012957005b600080fd5b34801561013a57600080fd5b5061014e6101493660046117ee565b6103e7565b6040519081526020015b60405180910390f35b34801561016d57600080fd5b5061014e61017c3660046117ee565b60676020526000908152604090205481565b34801561019a57600080fd5b506101ae6101a9366004611809565b610476565b005b3480156101bc57600080fd5b506101ae6101cb366004611809565b6105ef565b3480156101dc57600080fd5b5061014e6101eb3660046117ee565b60656020526000908152604090205481565b34801561020957600080fd5b50610212610692565b60405160ff9091168152602001610158565b34801561023057600080fd5b506101ae61023f366004611845565b61070c565b34801561025057600080fd5b50610259610885565b60405161015892919061185e565b34801561027357600080fd5b506101ae610947565b34801561028857600080fd5b506101ae610aa9565b34801561029d57600080fd5b506101ae6102ac366004611845565b610b1d565b3480156102bd57600080fd5b5061014e6102cc3660046117ee565b60666020526000908152604090205481565b3480156102ea57600080fd5b5061014e60685481565b34801561030057600080fd5b5061014e60695481565b34801561031657600080fd5b506032546001600160a01b03165b6040516001600160a01b039091168152602001610158565b34801561034857600080fd5b506101ae610357366004611845565b610b4c565b34801561036857600080fd5b506101ae610c84565b34801561037d57600080fd5b5061014e61038c3660046117ee565b6001600160a01b031660009081526065602052604090205490565b3480156103b357600080fd5b506101ae6103c23660046117ee565b610d4e565b3480156103d357600080fd5b50606a54610324906001600160a01b031681565b6001600160a01b03811660009081526067602090815260408083205460695460669093529083205490916201518091612710919061042590426118cb565b6001600160a01b03871660009081526065602052604090205461044891906118de565b61045291906118de565b61045c91906118f5565b61046691906118f5565b6104709190611917565b92915050565b600080516020611aac8339815191528054600160401b810460ff16159067ffffffffffffffff166000811580156104aa5750825b905060008267ffffffffffffffff1660011480156104c75750303b155b9050811580156104d5575080155b156104f35760405163f92ee8a960e01b815260040160405180910390fd5b845467ffffffffffffffff19166001178555831561051d57845460ff60401b1916600160401b1785555b6001600160a01b0388166105705760405162461bcd60e51b8152602060048201526015602482015274496e76616c696420546f6b656e206164647265737360581b60448201526064015b60405180910390fd5b610578610e39565b61058187610d4e565b6069869055606a80546001600160a01b0319166001600160a01b038a169081179091556105b19030600019610f2c565b83156105e557845460ff60401b1916855560405160018152600080516020611a8c8339815191529060200160405180910390a15b5050505050505050565b6032546001600160a01b031633146106195760405162461bcd60e51b81526004016105679061192a565b60405163a9059cbb60e01b81526001600160a01b0384811660048301526024820183905283169063a9059cbb906044016020604051808303816000875af1158015610668573d6000803e3d6000fd5b505050506040513d601f19601f8201168201806040525081019061068c919061195f565b50505050565b600080606a60009054906101000a90046001600160a01b03166001600160a01b031663313ce5676040518163ffffffff1660e01b8152600401602060405180830381865afa1580156106e8573d6000803e3d6000fd5b505050506040513d601f19601f820116820180604052508101906104709190611981565b3380156107445761071c816103e7565b6001600160a01b03821660009081526067602090815260408083209390935560669052204290555b6032546001600160a01b0316330361079a5760405162461bcd60e51b815260206004820152601960248201527831b932b0ba37b91031b0b713ba1039ba30b5b2903a37b5b2b760391b6044820152606401610567565b336000908152606560205260408120546107b49084611074565b90508281116108055760405162461bcd60e51b815260206004820152601c60248201527f596f7520646f6e2774206861766520656e6f756768207374616b6564000000006044820152606401610567565b8060000361081a57610818606b336110da565b505b3360009081526065602052604090205461083490846110ef565b5060685461084290826110ef565b6068556040805184815242602082015233917ff26c0304cc83daf500e1dc22ab2e3cf954b3d506d62e34d70cc054255079e39791015b60405180910390a2505050565b600060606000610895606b61114b565b67ffffffffffffffff8111156108ad576108ad6119a4565b6040519080825280602002602001820160405280156108d6578160200160208202803683370190505b50905060005b6108e6606b61114b565b811015610934576108f8606b82611155565b82828151811061090a5761090a6119ba565b6001600160a01b03909216602092830291909101909101528061092c816119d0565b9150506108dc565b5061093f606b61114b565b939092509050565b6032546001600160a01b031633146109715760405162461bcd60e51b81526004016105679061192a565b60005b61097e606b61114b565b811015610aa6576000610995610149606b84611155565b905060006067816109a7606b86611155565b6001600160a01b03166001600160a01b031681526020019081526020016000208190555042606660006109e485606b61115590919063ffffffff16565b6001600160a01b031681526020810191909152604001600020558015610a9357606a546001600160a01b031663a9059cbb610a20606b85611155565b6040516001600160e01b031960e084901b1681526001600160a01b039091166004820152602481018490526044016020604051808303816000875af1158015610a6d573d6000803e3d6000fd5b505050506040513d601f19601f82011682018060405250810190610a91919061195f565b505b5080610a9e816119d0565b915050610974565b50565b6032546001600160a01b03163314610ad35760405162461bcd60e51b81526004016105679061192a565b6032546040516000916001600160a01b0316907f8be0079c531659141344cd1fd0a4f28419497f9722a3daafe3b4186f6b6457e0908390a3603280546001600160a01b0319169055565b6032546001600160a01b03163314610b475760405162461bcd60e51b81526004016105679061192a565b606955565b338015610b8457610b5c816103e7565b6001600160a01b03821660009081526067602090815260408083209390935560669052204290555b6032546001600160a01b03163303610bda5760405162461bcd60e51b815260206004820152601960248201527831b932b0ba37b91031b0b713ba1039ba30b5b2903a37b5b2b760391b6044820152606401610567565b610be5606b33611161565b610bf657610bf4606b33611183565b505b606a54610c0e906001600160a01b0316333085611198565b33600090815260656020526040812054610c289084611074565b336000908152606560205260409020819055606854909150610c4a9084611074565b6068556040805184815242602082015233917f1449c6dd7851abc30abf37f57715f492010519147cc2652fbc38202c18a6ee909101610878565b338015610cbc57610c94816103e7565b6001600160a01b03821660009081526067602090815260408083209390935560669052204290555b336000818152606760205260408082208054929055606a54905163a9059cbb60e01b815260048101939093526024830182905290916001600160a01b039091169063a9059cbb906044016020604051808303816000875af1158015610d25573d6000803e3d6000fd5b505050506040513d601f19601f82011682018060405250810190610d49919061195f565b505050565b6032546001600160a01b03163314610d785760405162461bcd60e51b81526004016105679061192a565b6001600160a01b038116610ddd5760405162461bcd60e51b815260206004820152602660248201527f4f776e61626c653a206e6577206f776e657220697320746865207a65726f206160448201526564647265737360d01b6064820152608401610567565b6032546040516001600160a01b038084169216907f8be0079c531659141344cd1fd0a4f28419497f9722a3daafe3b4186f6b6457e090600090a3603280546001600160a01b0319166001600160a01b0392909216919091179055565b600080516020611aac8339815191528054600160401b810460ff16159067ffffffffffffffff16600081158015610e6d5750825b905060008267ffffffffffffffff166001148015610e8a5750303b155b905081158015610e98575080155b15610eb65760405163f92ee8a960e01b815260040160405180910390fd5b845467ffffffffffffffff191660011785558315610ee057845460ff60401b1916600160401b1785555b610ee86111d0565b610ef06112a6565b8315610f2557845460ff60401b1916855560405160018152600080516020611a8c833981519152906020015b60405180910390a15b5050505050565b801580610fa65750604051636eb1769f60e11b81523060048201526001600160a01b03838116602483015284169063dd62ed3e90604401602060405180830381865afa158015610f80573d6000803e3d6000fd5b505050506040513d601f19601f82011682018060405250810190610fa491906119e9565b155b6110115760405162461bcd60e51b815260206004820152603660248201527f5361666545524332303a20617070726f76652066726f6d206e6f6e2d7a65726f60448201527520746f206e6f6e2d7a65726f20616c6c6f77616e636560501b6064820152608401610567565b6040516001600160a01b038316602482015260448101829052610d4990849063095ea7b360e01b906064015b60408051601f198184030181529190526020810180516001600160e01b03166001600160e01b0319909316929092179091526113c0565b6000806110818385611917565b9050838110156110d35760405162461bcd60e51b815260206004820152601b60248201527f536166654d6174683a206164646974696f6e206f766572666c6f7700000000006044820152606401610567565b9392505050565b60006110d3836001600160a01b038416611492565b6000828211156111415760405162461bcd60e51b815260206004820152601e60248201527f536166654d6174683a207375627472616374696f6e206f766572666c6f7700006044820152606401610567565b6110d382846118cb565b6000610470825490565b60006110d38383611585565b6001600160a01b038116600090815260018301602052604081205415156110d3565b60006110d3836001600160a01b03841661160b565b6040516001600160a01b038085166024830152831660448201526064810182905261068c9085906323b872dd60e01b9060840161103d565b600080516020611aac8339815191528054600160401b810460ff16159067ffffffffffffffff166000811580156112045750825b905060008267ffffffffffffffff1660011480156112215750303b155b90508115801561122f575080155b1561124d5760405163f92ee8a960e01b815260040160405180910390fd5b845467ffffffffffffffff191660011785558315610ef057845460ff60401b1916600160401b1785558315610f2557845460ff60401b1916855560405160018152600080516020611a8c83398151915290602001610f1c565b600080516020611aac8339815191528054600160401b810460ff16159067ffffffffffffffff166000811580156112da5750825b905060008267ffffffffffffffff1660011480156112f75750303b155b905081158015611305575080155b156113235760405163f92ee8a960e01b815260040160405180910390fd5b845467ffffffffffffffff19166001178555831561134d57845460ff60401b1916600160401b1785555b603280546001600160a01b0319163390811790915560405181906000907f8be0079c531659141344cd1fd0a4f28419497f9722a3daafe3b4186f6b6457e0908290a3508315610f2557845460ff60401b1916855560405160018152600080516020611a8c83398151915290602001610f1c565b6000611415826040518060400160405280602081526020017f5361666545524332303a206c6f772d6c6576656c2063616c6c206661696c6564815250856001600160a01b031661165a9092919063ffffffff16565b805190915015610d495780806020019051810190611433919061195f565b610d495760405162461bcd60e51b815260206004820152602a60248201527f5361666545524332303a204552433230206f7065726174696f6e20646964206e6044820152691bdd081cdd58d8d9595960b21b6064820152608401610567565b6000818152600183016020526040812054801561157b5760006114b66001836118cb565b85549091506000906114ca906001906118cb565b905060008660000182815481106114e3576114e36119ba565b9060005260206000200154905080876000018481548110611506576115066119ba565b60009182526020909120015561151d836001611917565b6000828152600189016020526040902055865487908061153f5761153f611a02565b60019003818190600052602060002001600090559055866001016000878152602001908152602001600020600090556001945050505050610470565b6000915050610470565b815460009082106115e35760405162461bcd60e51b815260206004820152602260248201527f456e756d657261626c655365743a20696e646578206f7574206f6620626f756e604482015261647360f01b6064820152608401610567565b8260000182815481106115f8576115f86119ba565b9060005260206000200154905092915050565b600081815260018301602052604081205461165257508154600181810184556000848152602080822090930184905584548482528286019093526040902091909155610470565b506000610470565b60606116698484600085611671565b949350505050565b6060824710156116d25760405162461bcd60e51b815260206004820152602660248201527f416464726573733a20696e73756666696369656e742062616c616e636520666f6044820152651c8818d85b1b60d21b6064820152608401610567565b843b6117205760405162461bcd60e51b815260206004820152601d60248201527f416464726573733a2063616c6c20746f206e6f6e2d636f6e74726163740000006044820152606401610567565b600080866001600160a01b0316858760405161173c9190611a3c565b60006040518083038185875af1925050503d8060008114611779576040519150601f19603f3d011682016040523d82523d6000602084013e61177e565b606091505b509150915061178e828286611799565b979650505050505050565b606083156117a85750816110d3565b8251156117b85782518084602001fd5b8160405162461bcd60e51b81526004016105679190611a58565b80356001600160a01b03811681146117e957600080fd5b919050565b60006020828403121561180057600080fd5b6110d3826117d2565b60008060006060848603121561181e57600080fd5b611827846117d2565b9250611835602085016117d2565b9150604084013590509250925092565b60006020828403121561185757600080fd5b5035919050565b6000604082018483526020604081850152818551808452606086019150828701935060005b818110156118a85784516001600160a01b031683529383019391830191600101611883565b5090979650505050505050565b634e487b7160e01b600052601160045260246000fd5b81810381811115610470576104706118b5565b8082028115828204841417610470576104706118b5565b60008261191257634e487b7160e01b600052601260045260246000fd5b500490565b80820180821115610470576104706118b5565b6020808252818101527f4f776e61626c653a2063616c6c6572206973206e6f7420746865206f776e6572604082015260600190565b60006020828403121561197157600080fd5b815180151581146110d357600080fd5b60006020828403121561199357600080fd5b815160ff811681146110d357600080fd5b634e487b7160e01b600052604160045260246000fd5b634e487b7160e01b600052603260045260246000fd5b6000600182016119e2576119e26118b5565b5060010190565b6000602082840312156119fb57600080fd5b5051919050565b634e487b7160e01b600052603160045260246000fd5b60005b83811015611a33578181015183820152602001611a1b565b50506000910152565b60008251611a4e818460208701611a18565b9190910192915050565b6020815260008251806020840152611a77816040850160208701611a18565b601f01601f1916919091016040019291505056fec7f505b2f371ae2175ee4913f4499e1f2633a7b5936321eed1cdaeb6115181d2f0c57e16840df040f15088dc2f81fe391c3923bec73e23a9662efc9c229c6a00a2646970667358221220ba53d8848d2ac83525a234ad90de1d9ec7193f065e170107480a93ca4ded351e64736f6c63430008140033",
  "linkReferences": {},
  "deployedLinkReferences": {}
}